{
  "address": "0xfE4BF6dB2b67EC27CCea61f1EC6924BEa79B0fC8",
  "abi": [
    {
      "anonymous": false,
      "inputs": [
        {
          "indexed": false,
          "internalType": "address",
          "name": "roscaAddress",
          "type": "address"
        },
        {
          "indexed": false,
          "internalType": "address",
          "name": "roscaCreator",
          "type": "address"
        },
        {
          "components": [
            {
              "internalType": "contract IERC20",
              "name": "token",
              "type": "address"
            },
            {
              "internalType": "string",
              "name": "roscaName",
              "type": "string"
            },
            {
              "internalType": "string",
              "name": "imgLink",
              "type": "string"
            },
            {
              "internalType": "string",
              "name": "authCode",
              "type": "string"
            },
            {
              "internalType": "uint256",
              "name": "goalAmount",
              "type": "uint256"
            },
            {
              "internalType": "uint256",
              "name": "ctbAmount",
              "type": "uint256"
            },
            {
              "internalType": "string",
              "name": "ctbDay",
              "type": "string"
            },
            {
              "internalType": "string",
              "name": "ctbOccur",
              "type": "string"
            },
            {
              "internalType": "string",
              "name": "disbDay",
              "type": "string"
            },
            {
              "internalType": "string",
              "name": "disbOccur",
              "type": "string"
            }
          ],
          "indexed": false,
          "internalType": "struct RoscaDetails",
          "name": "RD",
          "type": "tuple"
        }
      ],
      "name": "CreatedRosca",
      "type": "event"
    },
    {
      "inputs": [
        {
          "components": [
            {
              "internalType": "contract IERC20",
              "name": "token",
              "type": "address"
            },
            {
              "internalType": "string",
              "name": "roscaName",
              "type": "string"
            },
            {
              "internalType": "string",
              "name": "imgLink",
              "type": "string"
            },
            {
              "internalType": "string",
              "name": "authCode",
              "type": "string"
            },
            {
              "internalType": "uint256",
              "name": "goalAmount",
              "type": "uint256"
            },
            {
              "internalType": "uint256",
              "name": "ctbAmount",
              "type": "uint256"
            },
            {
              "internalType": "string",
              "name": "ctbDay",
              "type": "string"
            },
            {
              "internalType": "string",
              "name": "ctbOccur",
              "type": "string"
            },
            {
              "internalType": "string",
              "name": "disbDay",
              "type": "string"
            },
            {
              "internalType": "string",
              "name": "disbOccur",
              "type": "string"
            }
          ],
          "internalType": "struct RoscaDetails",
          "name": "rD",
          "type": "tuple"
        }
      ],
      "name": "createRosca",
      "outputs": [],
      "stateMutability": "nonpayable",
      "type": "function"
    },
    {
      "inputs": [],
      "name": "getMySpaces",
      "outputs": [
        {
          "components": [
            {
              "internalType": "address",
              "name": "spaceAddress",
              "type": "address"
            },
            {
              "internalType": "string",
              "name": "spaceName",
              "type": "string"
            },
            {
              "internalType": "string",
              "name": "spaceType",
              "type": "string"
            }
          ],
          "internalType": "struct Spaces.ActiveSpace[]",
          "name": "",
          "type": "tuple[]"
        }
      ],
      "stateMutability": "view",
      "type": "function"
    },
    {
      "inputs": [],
      "name": "returnSpaces",
      "outputs": [
        {
          "internalType": "contract Rosca[]",
          "name": "",
          "type": "address[]"
        }
      ],
      "stateMutability": "view",
      "type": "function"
    },
    {
      "inputs": [
        {
          "internalType": "uint256",
          "name": "",
          "type": "uint256"
        }
      ],
      "name": "roscas",
      "outputs": [
        {
          "internalType": "contract Rosca",
          "name": "",
          "type": "address"
        }
      ],
      "stateMutability": "view",
      "type": "function"
    }
  ],
  "transactionHash": "0xcc55ccae27b9a1b95e6a9527abee0aa96e8460fb2dbc2bcfccee7ee4c49efde8",
  "args": [],
  "numDeployments": 1,
  "solcInputHash": "f6177dde8a760e64bac26363ff513fdb",
  "bytecode": "0x608060405234801561001057600080fd5b50613696806100206000396000f3fe60806040523480156200001157600080fd5b5060043610620000525760003560e01c806303bde9ce14620000575780632fd76fe5146200007057806376d1412614620000a457806387e1689914620000bd575b600080fd5b6200006e62000068366004620005b5565b620000d6565b005b620000876200008136600462000742565b6200026d565b6040516001600160a01b0390911681526020015b60405180910390f35b620000ae62000298565b6040516200009b9190620007a4565b620000c76200044e565b6040516200009b919062000846565b60003382604051620000e890620004b2565b620000f592919062000989565b604051809103906000f08015801562000112573d6000803e3d6000fd5b5060008054600180820183558280527f290decd9548b62a8d60345a988386fc84ba6bc95484008f6362f93160ef3e56390910180546001600160a01b038581166001600160a01b03199283168117909355604080516060808201835260208083018281528385019283529683528b8101518752835180850185526005815264726f73636160d81b8183015290915233885286815291872080548088018255908852919096208651600390920201805491909216921691909117815590519394509192839291820190620001e6908262000a46565b5060408201516002820190620001fd908262000a46565b505033600081815260016020908152604080832054600283528184206001600160a01b03891685529092529182902055517fcb71150a9df0120b96377c4598f2ea96c49fb1f9f4ea698017d27074da383221925062000260918591879062000b13565b60405180910390a1505050565b600081815481106200027e57600080fd5b6000918252602090912001546001600160a01b0316905081565b336000908152600160209081526040808320805482518185028101850190935280835260609492939192909184015b828210156200044557600084815260209081902060408051606081019091526003850290910180546001600160a01b0316825260018101805492939192918401916200031390620009b7565b80601f01602080910402602001604051908101604052809291908181526020018280546200034190620009b7565b8015620003925780601f10620003665761010080835404028352916020019162000392565b820191906000526020600020905b8154815290600101906020018083116200037457829003601f168201915b50505050508152602001600282018054620003ad90620009b7565b80601f0160208091040260200160405190810160405280929190818152602001828054620003db90620009b7565b80156200042c5780601f1062000400576101008083540402835291602001916200042c565b820191906000526020600020905b8154815290600101906020018083116200040e57829003601f168201915b50505050508152505081526020019060010190620002c7565b50505050905090565b60606000805480602002602001604051908101604052809291908181526020018280548015620004a857602002820191906000526020600020905b81546001600160a01b0316815260019091019060200180831162000489575b5050505050905090565b612b168062000b4b83390190565b634e487b7160e01b600052604160045260246000fd5b604051610140810167ffffffffffffffff81118282101715620004fd57620004fd620004c0565b60405290565b80356001600160a01b03811681146200051b57600080fd5b919050565b600082601f8301126200053257600080fd5b813567ffffffffffffffff80821115620005505762000550620004c0565b604051601f8301601f19908116603f011681019082821181831017156200057b576200057b620004c0565b816040528381528660208588010111156200059557600080fd5b836020870160208301376000602085830101528094505050505092915050565b600060208284031215620005c857600080fd5b813567ffffffffffffffff80821115620005e157600080fd5b908301906101408286031215620005f757600080fd5b62000601620004d6565b6200060c8362000503565b81526020830135828111156200062157600080fd5b6200062f8782860162000520565b6020830152506040830135828111156200064857600080fd5b620006568782860162000520565b6040830152506060830135828111156200066f57600080fd5b6200067d8782860162000520565b6060830152506080830135608082015260a083013560a082015260c083013582811115620006aa57600080fd5b620006b88782860162000520565b60c08301525060e083013582811115620006d157600080fd5b620006df8782860162000520565b60e0830152506101008084013583811115620006fa57600080fd5b620007088882870162000520565b82840152505061012080840135838111156200072357600080fd5b620007318882870162000520565b918301919091525095945050505050565b6000602082840312156200075557600080fd5b5035919050565b6000815180845260005b81811015620007845760208185018101518683018201520162000766565b506000602082860101526020601f19601f83011685010191505092915050565b60006020808301818452808551808352604092508286019150828160051b87010184880160005b838110156200083857888303603f19018552815180516001600160a01b031684528781015160608986018190529062000807828701826200075c565b915050878201519150848103888601526200082381836200075c565b968901969450505090860190600101620007cb565b509098975050505050505050565b6020808252825182820181905260009190848201906040850190845b81811015620008895783516001600160a01b03168352928401929184019160010162000862565b50909695505050505050565b80516001600160a01b0316825260006101406020830151816020860152620008c0828601826200075c565b91505060408301518482036040860152620008dc82826200075c565b91505060608301518482036060860152620008f882826200075c565b9150506080830151608085015260a083015160a085015260c083015184820360c08601526200092882826200075c565b91505060e083015184820360e08601526200094482826200075c565b91505061010080840151858303828701526200096183826200075c565b9250505061012080840151858303828701526200097f83826200075c565b9695505050505050565b6001600160a01b0383168152604060208201819052600090620009af9083018462000895565b949350505050565b600181811c90821680620009cc57607f821691505b602082108103620009ed57634e487b7160e01b600052602260045260246000fd5b50919050565b601f82111562000a4157600081815260208120601f850160051c8101602086101562000a1c5750805b601f850160051c820191505b8181101562000a3d5782815560010162000a28565b5050505b505050565b815167ffffffffffffffff81111562000a635762000a63620004c0565b62000a7b8162000a748454620009b7565b84620009f3565b602080601f83116001811462000ab3576000841562000a9a5750858301515b600019600386901b1c1916600185901b17855562000a3d565b600085815260208120601f198616915b8281101562000ae45788860151825594840194600190910190840162000ac3565b508582101562000b035787850151600019600388901b60f8161c191681555b5050505050600190811b01905550565b6001600160a01b0384811682528316602082015260606040820181905260009062000b419083018462000895565b9594505050505056fe60806040526018805461ffff191690553480156200001c57600080fd5b5060405162002b1638038062002b168339810160408190526200003f9162000ac1565b8051600080546001600160a01b039092166001600160a01b03199283168117825560128290556013919091556008805490921617815560208201518291906009906200008c908262000cf2565b5060408201516002820190620000a3908262000cf2565b5060608201516003820190620000ba908262000cf2565b506080820151600482015560a0820151600582015560c08201516006820190620000e5908262000cf2565b5060e08201516007820190620000fc908262000cf2565b50610100820151600882019062000114908262000cf2565b5061012082015160098201906200012c908262000cf2565b50506002805460018181019092557f405787fa12a823e0f2b7631cc41b3ba8828b3321ca811111fa75cd3aa3bb5ace0180546001600160a01b0386166001600160a01b03199182168117909255825480840184557fb10e2d527612073b26eecdfd717e6a320cf44b4afac2b0732d9fcbe2b7fa0cf6018054909116821790556000908152600560205260409020805460ff1916909117905550620001cf620001d7565b50506200101d565b6000620001e5600e620003d6565b90506000620001f56010620003d6565b9050620002028262000578565b601655620002108162000578565b601755600060185460ff1660038111156200022f576200022f62000987565b03620002b6576001601581905562000248818062000dd4565b815481106200025b576200025b62000df0565b600091825260209091200154600380546001600160a01b0319166001600160a01b039092169190911790556018805461ffff191660011790556200029f8262000578565b601655620002ad8162000578565b60175562000378565b60015460155410620002c85760006015555b600160156000828254620002dd919062000e06565b9091555050601554600190620002f590829062000dd4565b8154811062000308576200030862000df0565b6000918252602082200154600380546001600160a01b0319166001600160a01b039092169190911790556018805461ff00191690556016805462093a8092906200035490849062000e06565b9250508190555062093a806017600082825462000372919062000e06565b90915550505b601554601654601754600354604080519485526020850193909352918301526001600160a01b031660608201527fc641121d80663aede9804c3bfaba45a29038d67ec846178c73e6d86afeabc9369060800160405180910390a15050565b6040805161012081018252600660e08201818152654d6f6e64617960d01b61010084015282528251808401845260078152665475657364617960c81b602082810191909152808401919091528351808501855260098152685765646e657364617960b81b818301528385015283518085018552600880825267546875727364617960c01b828401526060850191909152845180860186528381526546726964617960d01b8184015260808501528451808601865290815267536174757264617960c01b8183015260a0840152835180850185529182526553756e64617960d01b8282015260c083019190915291516000928391620004d79186910162000e1c565b60405160208183030381529060405280519060200120905060005b6007811015620005705782816007811062000511576200051162000df0565b602002015160405160200162000528919062000eaf565b6040516020818303038152906040528051906020012082036200055b576200055281600162000e06565b95945050505050565b80620005678162000ee4565b915050620004f2565b505050919050565b6000808080806200058d620151804262000f16565b905060006007620005a083600362000e06565b620005ac919062000f2d565b620005b990600162000e06565b9050620005d1826200066b60201b62000eb81760201c565b9650945092506000600782620005e88a8362000e06565b620005f4919062000dd4565b62000600919062000f2d565b6200060c908762000e06565b9050620006268486836200081760201b6200102c1760201c565b62000635906201518062000f44565b965042871162000660576200064c81600762000e06565b90506200065d8762093a8062000e06565b96505b505050505050919050565b60008080838162253d8c620006848362010bd962000f5e565b62000690919062000f5e565b9050600062023ab1620006a583600462000f89565b620006b1919062000fbf565b90506004620006c48262023ab162000f89565b620006d190600362000f5e565b620006dd919062000fbf565b620006e9908362000ff3565b9150600062164b09620006fe84600162000f5e565b6200070c90610fa062000f89565b62000718919062000fbf565b905060046200072a826105b562000f89565b62000736919062000fbf565b62000742908462000ff3565b6200074f90601f62000f5e565b9250600061098f6200076385605062000f89565b6200076f919062000fbf565b905060006050620007838361098f62000f89565b6200078f919062000fbf565b6200079b908662000ff3565b9050620007aa600b8362000fbf565b9450620007b985600c62000f89565b620007c683600262000f5e565b620007d2919062000ff3565b91508483620007e360318762000ff3565b620007f090606462000f89565b620007fc919062000f5e565b62000808919062000f5e565b9a919950975095505050505050565b60006107b28410156200082957600080fd5b838383600062253d8c60046064600c62000845600e8862000ff3565b62000851919062000fbf565b6200085f8861132462000f5e565b6200086b919062000f5e565b62000877919062000fbf565b6200088490600362000f89565b62000890919062000fbf565b600c80620008a0600e8862000ff3565b620008ac919062000fbf565b620008b990600c62000f89565b620008c660028862000ff3565b620008d2919062000ff3565b620008e09061016f62000f89565b620008ec919062000fbf565b6004600c620008fd600e8962000ff3565b62000909919062000fbf565b62000917896112c062000f5e565b62000923919062000f5e565b62000931906105b562000f89565b6200093d919062000fbf565b6200094b617d4b8762000ff3565b62000957919062000f5e565b62000963919062000f5e565b6200096f919062000ff3565b6200097b919062000ff3565b98975050505050505050565b634e487b7160e01b600052602160045260246000fd5b6001600160a01b0381168114620009b357600080fd5b50565b634e487b7160e01b600052604160045260246000fd5b60405161014081016001600160401b0381118282101715620009f257620009f2620009b6565b60405290565b805162000a05816200099d565b919050565b60005b8381101562000a2757818101518382015260200162000a0d565b50506000910152565b600082601f83011262000a4257600080fd5b81516001600160401b038082111562000a5f5762000a5f620009b6565b604051601f8301601f19908116603f0116810190828211818310171562000a8a5762000a8a620009b6565b8160405283815286602085880101111562000aa457600080fd5b62000ab784602083016020890162000a0a565b9695505050505050565b6000806040838503121562000ad557600080fd5b825162000ae2816200099d565b60208401519092506001600160401b038082111562000b0057600080fd5b90840190610140828703121562000b1657600080fd5b62000b20620009cc565b62000b2b83620009f8565b815260208301518281111562000b4057600080fd5b62000b4e8882860162000a30565b60208301525060408301518281111562000b6757600080fd5b62000b758882860162000a30565b60408301525060608301518281111562000b8e57600080fd5b62000b9c8882860162000a30565b6060830152506080830151608082015260a083015160a082015260c08301518281111562000bc957600080fd5b62000bd78882860162000a30565b60c08301525060e08301518281111562000bf057600080fd5b62000bfe8882860162000a30565b60e083015250610100808401518381111562000c1957600080fd5b62000c278982870162000a30565b828401525050610120808401518381111562000c4257600080fd5b62000c508982870162000a30565b8284015250508093505050509250929050565b600181811c9082168062000c7857607f821691505b60208210810362000c9957634e487b7160e01b600052602260045260246000fd5b50919050565b601f82111562000ced57600081815260208120601f850160051c8101602086101562000cc85750805b601f850160051c820191505b8181101562000ce95782815560010162000cd4565b5050505b505050565b81516001600160401b0381111562000d0e5762000d0e620009b6565b62000d268162000d1f845462000c63565b8462000c9f565b602080601f83116001811462000d5e576000841562000d455750858301515b600019600386901b1c1916600185901b17855562000ce9565b600085815260208120601f198616915b8281101562000d8f5788860151825594840194600190910190840162000d6e565b508582101562000dae5787850151600019600388901b60f8161c191681555b5050505050600190811b01905550565b634e487b7160e01b600052601160045260246000fd5b8181038181111562000dea5762000dea62000dbe565b92915050565b634e487b7160e01b600052603260045260246000fd5b8082018082111562000dea5762000dea62000dbe565b600060208083526000845462000e328162000c63565b8084870152604060018084166000811462000e56576001811462000e715762000ea1565b60ff1985168984015283151560051b89018301955062000ea1565b896000528660002060005b8581101562000e995781548b820186015290830190880162000e7c565b8a0184019650505b509398975050505050505050565b602081526000825180602084015262000ed081604085016020870162000a0a565b601f01601f19169190910160400192915050565b60006001820162000ef95762000ef962000dbe565b5060010190565b634e487b7160e01b600052601260045260246000fd5b60008262000f285762000f2862000f00565b500490565b60008262000f3f5762000f3f62000f00565b500690565b808202811582820484141762000dea5762000dea62000dbe565b808201828112600083128015821682158216171562000f815762000f8162000dbe565b505092915050565b80820260008212600160ff1b8414161562000fa85762000fa862000dbe565b818105831482151762000dea5762000dea62000dbe565b60008262000fd15762000fd162000f00565b600160ff1b82146000198414161562000fee5762000fee62000dbe565b500590565b818103600083128015838313168383128216171562001016576200101662000dbe565b5092915050565b611ae9806200102d6000396000f3fe60806040526004361061008f5760003560e01c80638ce65f30116100565780638ce65f301461013e5780639a71f55c1461015e5780639eab525314610166578063a88765c914610188578063fbbf93a01461019d57005b80630dcfb2b81461009857806324600fc3146100ab5780634a92041d146100c85780635a8a68dc146100ef57806369105f971461011b57005b3661009657005b005b6100966100a63660046115b1565b6101ca565b6100b3610484565b60405190151581526020015b60405180910390f35b3480156100d457600080fd5b506018546100e29060ff1681565b6040516100bf91906115e0565b3480156100fb57600080fd5b5060185461010e90610100900460ff1681565b6040516100bf91906115fa565b34801561012757600080fd5b50610130610550565b6040519081526020016100bf565b34801561014a57600080fd5b506100b361015936600461160e565b610581565b6100b36106df565b34801561017257600080fd5b5061017b610a26565b6040516100bf9190611680565b34801561019457600080fd5b50610130610a88565b3480156101a957600080fd5b506101b2610afa565b6040516100bf9c9b9a99989796959493929190611713565b600080601854610100900460ff1660028111156101e9576101e96115ca565b146101f357600080fd5b600c54601354106102435760405162461bcd60e51b8152602060048201526015602482015274149bdd5b99081a5cc8199d5b1b1e48199d5b991959605a1b60448201526064015b60405180910390fd5b600d5433600090815260046020526040902054106102b45760405162461bcd60e51b815260206004820152602860248201527f596f7520686176652066756c6c7920636f6e747269627574656420746f2074686044820152671a5cc8149bdd5b9960c21b606482015260840161023a565b6000546040516370a0823160e01b815233600482015283916001600160a01b0316906370a0823190602401602060405180830381865afa1580156102fc573d6000803e3d6000fd5b505050506040513d601f19601f8201168201806040525081019061032091906117cf565b10156103625760405162461bcd60e51b8152602060048201526011602482015270496e737566696369656e742046756e647360781b604482015260640161023a565b6000546040516323b872dd60e01b8152336004820152306024820152604481018490526001600160a01b03909116906323b872dd906064016020604051808303816000875af11580156103b9573d6000803e3d6000fd5b505050506040513d601f19601f820116820180604052508101906103dd91906117e8565b6104205760405162461bcd60e51b81526020600482015260146024820152734661696c656420746f2046756e6420526f73636160601b604482015260640161023a565b3360009081526004602052604090205461043a9083611169565b336000908152600460205260409020556013546104579083611169565b601355610462610a88565b601255600c5460135403610480576018805461ff0019166101001790555b5050565b60006002601854610100900460ff1660028111156104a4576104a46115ca565b036104e45760405162461bcd60e51b815260206004820152601060248201526f105b1c9958591e4814185e595913dd5d60821b604482015260640161023a565b6003546001600160a01b031633146105375760405162461bcd60e51b8152602060048201526016602482015275151a1a5cc81a5cc81b9bdd081e5bdd5c881c9bdd5b9960521b604482015260640161023a565b61053f6106df565b1561054a5750600190565b50600090565b6000600160008154811061056657610566611811565b6000918252602090912001546001600160a01b031631919050565b60405160009061059690600b90602001611907565b6040516020818303038152906040528051906020012083836040516020016105bf92919061191a565b60405160208183030381529060405280519060200120146106225760405162461bcd60e51b815260206004820152601b60248201527f496e76616c696420617574686f72697a6174696f6e20636f6465210000000000604482015260640161023a565b3360009081526005602052604090205460ff16156106825760405162461bcd60e51b815260206004820152601860248201527f596f752061726520616c72656164792061204d656d6265720000000000000000604482015260640161023a565b50506001805480820182557fb10e2d527612073b26eecdfd717e6a320cf44b4afac2b0732d9fcbe2b7fa0cf60180546001600160a01b031916339081179091556000908152600560205260409020805460ff191682179055919050565b600c54601354600091146107355760405162461bcd60e51b815260206004820152601d60248201527f54686520726f756e64206973206e6f742066756c6c792066756e646564000000604482015260640161023a565b6003546001600160a01b031660009081526005602052604090205460ff166107ab5760405162461bcd60e51b815260206004820152602360248201527f447565206d656d626572206973206e6f742061206d656d626572212052656172604482015262793f2160e81b606482015260840161023a565b600c546000546040516370a0823160e01b81523060048201526001600160a01b03909116906370a0823190602401602060405180830381865afa1580156107f6573d6000803e3d6000fd5b505050506040513d601f19601f8201168201806040525081019061081a91906117cf565b101561085c5760405162461bcd60e51b8152602060048201526011602482015270496e737566696369656e742046756e647360781b604482015260640161023a565b600054600354600c5460405163a9059cbb60e01b81526001600160a01b039283166004820152602481019190915291169063a9059cbb906044016020604051808303816000875af11580156108b5573d6000803e3d6000fd5b505050506040513d601f19601f820116820180604052508101906108d991906117e8565b6109255760405162461bcd60e51b815260206004820152601860248201527f4661696c656420746f2070617920647565206d656d6265720000000000000000604482015260640161023a565b600060138190555b600154811015610987576000600460006001848154811061095057610950611811565b60009182526020808320909101546001600160a01b031683528201929092526040019020558061097f8161195f565b91505061092d565b506003546001600160a01b03166000908152600660205260409020805460ff191660011790556018805461ff0019166102001790556109c4610a88565b601255600354600c54601554604080516001600160a01b039094168452602084019290925282820152517ff21642b842e81992004c95ed649c9b4e65bd1e3b1520b0a44b261d75945222889181900360600190a1610a2061117e565b50600190565b60606001805480602002602001604051908101604052809291908181526020018280548015610a7e57602002820191906000526020600020905b81546001600160a01b03168152600190910190602001808311610a60575b5050505050905090565b600080546040516370a0823160e01b81523060048201526001600160a01b03909116906370a0823190602401602060405180830381865afa158015610ad1573d6000803e3d6000fd5b505050506040513d601f19601f82011682018060405250810190610af591906117cf565b905090565b6060806000606080606060008060008060008060086001018054610b1d90611827565b80601f0160208091040260200160405190810160405280929190818152602001828054610b4990611827565b8015610b965780601f10610b6b57610100808354040283529160200191610b96565b820191906000526020600020905b815481529060010190602001808311610b7957829003601f168201915b50505050509b5060086002018054610bad90611827565b80601f0160208091040260200160405190810160405280929190818152602001828054610bd990611827565b8015610c265780601f10610bfb57610100808354040283529160200191610c26565b820191906000526020600020905b815481529060010190602001808311610c0957829003601f168201915b50505050509a50600860040154995060086006018054610c4590611827565b80601f0160208091040260200160405190810160405280929190818152602001828054610c7190611827565b8015610cbe5780601f10610c9357610100808354040283529160200191610cbe565b820191906000526020600020905b815481529060010190602001808311610ca157829003601f168201915b5050505050985060086007018054610cd590611827565b80601f0160208091040260200160405190810160405280929190818152602001828054610d0190611827565b8015610d4e5780601f10610d2357610100808354040283529160200191610d4e565b820191906000526020600020905b815481529060010190602001808311610d3157829003601f168201915b50505050509750600880018054610d6490611827565b80601f0160208091040260200160405190810160405280929190818152602001828054610d9090611827565b8015610ddd5780601f10610db257610100808354040283529160200191610ddd565b820191906000526020600020905b815481529060010190602001808311610dc057829003601f168201915b5050505050965060155494506002600081548110610dfd57610dfd611811565b600091825260208220015460015460165492546040516370a0823160e01b81523060048201529199506001600160a01b0392831696508f938f938f938f938f938f938f938f938e9216906370a0823190602401602060405180830381865afa158015610e6d573d6000803e3d6000fd5b505050506040513d601f19601f82011682018060405250810190610e9191906117cf565b309b509b509b509b509b509b509b509b509b509b509b509b50909192939495969798999a9b565b60008080838162253d8c610ecf8362010bd9611978565b610ed99190611978565b9050600062023ab1610eec8360046119a0565b610ef691906119e6565b90506004610f078262023ab16119a0565b610f12906003611978565b610f1c91906119e6565b610f269083611a14565b9150600062164b09610f39846001611978565b610f4590610fa06119a0565b610f4f91906119e6565b90506004610f5f826105b56119a0565b610f6991906119e6565b610f739084611a14565b610f7e90601f611978565b9250600061098f610f908560506119a0565b610f9a91906119e6565b905060006050610fac8361098f6119a0565b610fb691906119e6565b610fc09086611a14565b9050610fcd600b836119e6565b9450610fda85600c6119a0565b610fe5836002611978565b610fef9190611a14565b91508483610ffe603187611a14565b6110099060646119a0565b6110139190611978565b61101d9190611978565b9a919950975095505050505050565b60006107b284101561103d57600080fd5b838383600062253d8c60046064600c611057600e88611a14565b61106191906119e6565b61106d88611324611978565b6110779190611978565b61108191906119e6565b61108c9060036119a0565b61109691906119e6565b600c806110a4600e88611a14565b6110ae91906119e6565b6110b990600c6119a0565b6110c4600288611a14565b6110ce9190611a14565b6110da9061016f6119a0565b6110e491906119e6565b6004600c6110f3600e89611a14565b6110fd91906119e6565b611109896112c0611978565b6111139190611978565b61111f906105b56119a0565b61112991906119e6565b611135617d4b87611a14565b61113f9190611978565b6111499190611978565b6111539190611a14565b61115d9190611a14565b98975050505050505050565b60006111758284611a3b565b90505b92915050565b600061118a600e61135b565b90506000611198601061135b565b90506111a3826114ef565b6016556111af816114ef565b601755600060185460ff1660038111156111cb576111cb6115ca565b0361124757600160158190556111e18180611a4e565b815481106111f1576111f1611811565b600091825260209091200154600380546001600160a01b0319166001600160a01b039092169190911790556018805461ffff19166001179055611233826114ef565b60165561123f816114ef565b6017556112fd565b600154601554106112585760006015555b60016015600082825461126b9190611a3b565b9091555050601554600190611281908290611a4e565b8154811061129157611291611811565b6000918252602082200154600380546001600160a01b0319166001600160a01b039092169190911790556018805461ff00191690556016805462093a8092906112db908490611a3b565b9250508190555062093a80601760008282546112f79190611a3b565b90915550505b601554601654601754600354604080519485526020850193909352918301526001600160a01b031660608201527fc641121d80663aede9804c3bfaba45a29038d67ec846178c73e6d86afeabc9369060800160405180910390a15050565b6040805161012081018252600660e08201818152654d6f6e64617960d01b61010084015282528251808401845260078152665475657364617960c81b602082810191909152808401919091528351808501855260098152685765646e657364617960b81b818301528385015283518085018552600880825267546875727364617960c01b828401526060850191909152845180860186528381526546726964617960d01b8184015260808501528451808601865290815267536174757264617960c01b8183015260a0840152835180850185529182526553756e64617960d01b8282015260c08301919091529151600092839161145a91869101611907565b60405160208183030381529060405280519060200120905060005b60078110156114e75782816007811061149057611490611811565b60200201516040516020016114a59190611a61565b6040516020818303038152906040528051906020012082036114d5576114cc816001611a3b565b95945050505050565b806114df8161195f565b915050611475565b505050919050565b6000808080806115026201518042611a74565b905060006007611513836003611a3b565b61151d9190611a88565b611528906001611a3b565b905061153382610eb8565b96509450925060006007826115488a83611a3b565b6115529190611a4e565b61155c9190611a88565b6115669087611a3b565b905061157384868361102c565b6115809062015180611a9c565b96504287116115a657611594816007611a3b565b90506115a38762093a80611a3b565b96505b505050505050919050565b6000602082840312156115c357600080fd5b5035919050565b634e487b7160e01b600052602160045260246000fd5b60208101600483106115f4576115f46115ca565b91905290565b60208101600383106115f4576115f46115ca565b6000806020838503121561162157600080fd5b823567ffffffffffffffff8082111561163957600080fd5b818501915085601f83011261164d57600080fd5b81358181111561165c57600080fd5b86602082850101111561166e57600080fd5b60209290920196919550909350505050565b6020808252825182820181905260009190848201906040850190845b818110156116c15783516001600160a01b03168352928401929184019160010161169c565b50909695505050505050565b6000815180845260005b818110156116f3576020818501810151868301820152016116d7565b506000602082860101526020601f19601f83011685010191505092915050565b6101808152600061172861018083018f6116cd565b828103602084015261173a818f6116cd565b90508c60408401528281036060840152611754818d6116cd565b90508281036080840152611768818c6116cd565b905082810360a084015261177c818b6116cd565b9150508760c08301528660e08301528561010083015260018060a01b038516610120830152836101408301526117be6101608301846001600160a01b03169052565b9d9c50505050505050505050505050565b6000602082840312156117e157600080fd5b5051919050565b6000602082840312156117fa57600080fd5b8151801515811461180a57600080fd5b9392505050565b634e487b7160e01b600052603260045260246000fd5b600181811c9082168061183b57607f821691505b60208210810361185b57634e487b7160e01b600052602260045260246000fd5b50919050565b8054600090600181811c908083168061187b57607f831692505b6020808410820361189c57634e487b7160e01b600052602260045260246000fd5b8388528180156118b357600181146118cd576118fb565b60ff1986168983015284151560051b8901820196506118fb565b876000528160002060005b868110156118f35781548b82018501529085019083016118d8565b8a0183019750505b50505050505092915050565b6020815260006111756020830184611861565b60208152816020820152818360408301376000818301604090810191909152601f909201601f19160101919050565b634e487b7160e01b600052601160045260246000fd5b60006001820161197157611971611949565b5060010190565b808201828112600083128015821682158216171561199857611998611949565b505092915050565b80820260008212600160ff1b841416156119bc576119bc611949565b818105831482151761117857611178611949565b634e487b7160e01b600052601260045260246000fd5b6000826119f5576119f56119d0565b600160ff1b821460001984141615611a0f57611a0f611949565b500590565b8181036000831280158383131683831282161715611a3457611a34611949565b5092915050565b8082018082111561117857611178611949565b8181038181111561117857611178611949565b60208152600061117560208301846116cd565b600082611a8357611a836119d0565b500490565b600082611a9757611a976119d0565b500690565b80820281158282048414176111785761117861194956fea2646970667358221220af1dde2b8b877812ea9c823ef1e6affe24dc7527001a4e45c4e5697850ada02864736f6c63430008110033a2646970667358221220da6a4bfd8af255512ad101bf6067d1ad1f6ceb46e9edc83ccd9877578b94155364736f6c63430008110033",
  "devdoc": {
    "kind": "dev",
    "methods": {},
    "version": 1
  },
  "userdoc": {
    "kind": "user",
    "methods": {},
    "version": 1
  },
  "storageLayout": {
    "storage": [
      {
        "astId": 12170,
        "contract": "src/Spaces.sol:Spaces",
        "label": "roscas",
        "offset": 0,
        "slot": "0",
        "type": "t_array(t_contract(Rosca)12147)dyn_storage"
      },
      {
        "astId": 12176,
        "contract": "src/Spaces.sol:Spaces",
        "label": "mySpaces",
        "offset": 0,
        "slot": "1",
        "type": "t_mapping(t_address,t_array(t_struct(ActiveSpace)12166_storage)dyn_storage)"
      },
      {
        "astId": 12182,
        "contract": "src/Spaces.sol:Spaces",
        "label": "mySpaceIdx",
        "offset": 0,
        "slot": "2",
        "type": "t_mapping(t_address,t_mapping(t_address,t_uint256))"
      }
    ],
    "types": {
      "t_address": {
        "encoding": "inplace",
        "label": "address",
        "numberOfBytes": "20"
      },
      "t_array(t_contract(Rosca)12147)dyn_storage": {
        "base": "t_contract(Rosca)12147",
        "encoding": "dynamic_array",
        "label": "contract Rosca[]",
        "numberOfBytes": "32"
      },
      "t_array(t_struct(ActiveSpace)12166_storage)dyn_storage": {
        "base": "t_struct(ActiveSpace)12166_storage",
        "encoding": "dynamic_array",
        "label": "struct Spaces.ActiveSpace[]",
        "numberOfBytes": "32"
      },
      "t_contract(Rosca)12147": {
        "encoding": "inplace",
        "label": "contract Rosca",
        "numberOfBytes": "20"
      },
      "t_mapping(t_address,t_array(t_struct(ActiveSpace)12166_storage)dyn_storage)": {
        "encoding": "mapping",
        "key": "t_address",
        "label": "mapping(address => struct Spaces.ActiveSpace[])",
        "numberOfBytes": "32",
        "value": "t_array(t_struct(ActiveSpace)12166_storage)dyn_storage"
      },
      "t_mapping(t_address,t_mapping(t_address,t_uint256))": {
        "encoding": "mapping",
        "key": "t_address",
        "label": "mapping(address => mapping(address => uint256))",
        "numberOfBytes": "32",
        "value": "t_mapping(t_address,t_uint256)"
      },
      "t_mapping(t_address,t_uint256)": {
        "encoding": "mapping",
        "key": "t_address",
        "label": "mapping(address => uint256)",
        "numberOfBytes": "32",
        "value": "t_uint256"
      },
      "t_string_storage": {
        "encoding": "bytes",
        "label": "string",
        "numberOfBytes": "32"
      },
      "t_struct(ActiveSpace)12166_storage": {
        "encoding": "inplace",
        "label": "struct Spaces.ActiveSpace",
        "members": [
          {
            "astId": 12161,
            "contract": "src/Spaces.sol:Spaces",
            "label": "spaceAddress",
            "offset": 0,
            "slot": "0",
            "type": "t_address"
          },
          {
            "astId": 12163,
            "contract": "src/Spaces.sol:Spaces",
            "label": "spaceName",
            "offset": 0,
            "slot": "1",
            "type": "t_string_storage"
          },
          {
            "astId": 12165,
            "contract": "src/Spaces.sol:Spaces",
            "label": "spaceType",
            "offset": 0,
            "slot": "2",
            "type": "t_string_storage"
          }
        ],
        "numberOfBytes": "96"
      },
      "t_uint256": {
        "encoding": "inplace",
        "label": "uint256",
        "numberOfBytes": "32"
      }
    }
  }
}