{
  "address": "0x95570D02c68DACda898F3E6E67A8490B06d7D08e",
  "abi": [
    {
      "inputs": [],
      "stateMutability": "nonpayable",
      "type": "constructor"
    },
    {
      "anonymous": false,
      "inputs": [
        {
          "indexed": false,
          "internalType": "address",
          "name": "loanAddress",
          "type": "address"
        },
        {
          "indexed": false,
          "internalType": "address",
          "name": "loanInitiator",
          "type": "address"
        },
        {
          "components": [
            {
              "internalType": "string",
              "name": "id",
              "type": "string"
            },
            {
              "internalType": "contract IERC20",
              "name": "token",
              "type": "address"
            },
            {
              "internalType": "address",
              "name": "lender",
              "type": "address"
            },
            {
              "internalType": "string",
              "name": "lenderName",
              "type": "string"
            },
            {
              "internalType": "address",
              "name": "borrower",
              "type": "address"
            },
            {
              "internalType": "string",
              "name": "borrowerName",
              "type": "string"
            },
            {
              "internalType": "uint256",
              "name": "principal",
              "type": "uint256"
            },
            {
              "internalType": "uint256",
              "name": "interest",
              "type": "uint256"
            },
            {
              "internalType": "uint256",
              "name": "balance",
              "type": "uint256"
            },
            {
              "internalType": "uint256",
              "name": "paid",
              "type": "uint256"
            },
            {
              "internalType": "uint256",
              "name": "minDuration",
              "type": "uint256"
            },
            {
              "internalType": "uint256",
              "name": "maxDuration",
              "type": "uint256"
            },
            {
              "internalType": "uint256",
              "name": "setDeadline",
              "type": "uint256"
            }
          ],
          "indexed": false,
          "internalType": "struct LoanDetails",
          "name": "LD",
          "type": "tuple"
        }
      ],
      "name": "CreatedLoan",
      "type": "event"
    },
    {
      "inputs": [
        {
          "components": [
            {
              "internalType": "string",
              "name": "id",
              "type": "string"
            },
            {
              "internalType": "contract IERC20",
              "name": "token",
              "type": "address"
            },
            {
              "internalType": "address",
              "name": "lender",
              "type": "address"
            },
            {
              "internalType": "string",
              "name": "lenderName",
              "type": "string"
            },
            {
              "internalType": "address",
              "name": "borrower",
              "type": "address"
            },
            {
              "internalType": "string",
              "name": "borrowerName",
              "type": "string"
            },
            {
              "internalType": "uint256",
              "name": "principal",
              "type": "uint256"
            },
            {
              "internalType": "uint256",
              "name": "interest",
              "type": "uint256"
            },
            {
              "internalType": "uint256",
              "name": "balance",
              "type": "uint256"
            },
            {
              "internalType": "uint256",
              "name": "paid",
              "type": "uint256"
            },
            {
              "internalType": "uint256",
              "name": "minDuration",
              "type": "uint256"
            },
            {
              "internalType": "uint256",
              "name": "maxDuration",
              "type": "uint256"
            },
            {
              "internalType": "uint256",
              "name": "setDeadline",
              "type": "uint256"
            }
          ],
          "internalType": "struct LoanDetails",
          "name": "_LD",
          "type": "tuple"
        }
      ],
      "name": "BorrowLoan",
      "outputs": [],
      "stateMutability": "nonpayable",
      "type": "function"
    },
    {
      "inputs": [
        {
          "components": [
            {
              "internalType": "string",
              "name": "id",
              "type": "string"
            },
            {
              "internalType": "contract IERC20",
              "name": "token",
              "type": "address"
            },
            {
              "internalType": "address",
              "name": "lender",
              "type": "address"
            },
            {
              "internalType": "string",
              "name": "lenderName",
              "type": "string"
            },
            {
              "internalType": "address",
              "name": "borrower",
              "type": "address"
            },
            {
              "internalType": "string",
              "name": "borrowerName",
              "type": "string"
            },
            {
              "internalType": "uint256",
              "name": "principal",
              "type": "uint256"
            },
            {
              "internalType": "uint256",
              "name": "interest",
              "type": "uint256"
            },
            {
              "internalType": "uint256",
              "name": "balance",
              "type": "uint256"
            },
            {
              "internalType": "uint256",
              "name": "paid",
              "type": "uint256"
            },
            {
              "internalType": "uint256",
              "name": "minDuration",
              "type": "uint256"
            },
            {
              "internalType": "uint256",
              "name": "maxDuration",
              "type": "uint256"
            },
            {
              "internalType": "uint256",
              "name": "setDeadline",
              "type": "uint256"
            }
          ],
          "internalType": "struct LoanDetails",
          "name": "_LD",
          "type": "tuple"
        }
      ],
      "name": "LendLoan",
      "outputs": [],
      "stateMutability": "nonpayable",
      "type": "function"
    },
    {
      "inputs": [],
      "name": "getLoans",
      "outputs": [
        {
          "internalType": "contract P2PLoan[]",
          "name": "",
          "type": "address[]"
        }
      ],
      "stateMutability": "view",
      "type": "function"
    },
    {
      "inputs": [],
      "name": "getMyLoans",
      "outputs": [
        {
          "components": [
            {
              "internalType": "contract P2PLoan",
              "name": "loanAddress",
              "type": "address"
            },
            {
              "internalType": "bool",
              "name": "lent",
              "type": "bool"
            }
          ],
          "internalType": "struct Loans.ActiveLoan[]",
          "name": "",
          "type": "tuple[]"
        }
      ],
      "stateMutability": "view",
      "type": "function"
    },
    {
      "inputs": [],
      "name": "getONRsAddr",
      "outputs": [
        {
          "internalType": "address",
          "name": "_ONR",
          "type": "address"
        }
      ],
      "stateMutability": "view",
      "type": "function"
    }
  ],
  "transactionHash": "0xf9eb28a35b4c9e723f52133ca70832617444bf840caf3cbf0f93c688d951f69a",
  "args": [],
  "numDeployments": 1,
  "solcInputHash": "4a8f369ea690854ef745f7eeaabf3d76",
  "bytecode": "0x608060405234801561001057600080fd5b503060405161001e90610070565b6001600160a01b039091168152602001604051809103906000f08015801561004a573d6000803e3d6000fd5b50600080546001600160a01b0319166001600160a01b039290921691909117905561007d565b61315d806124c983390190565b61243d8061008c6000396000f3fe60806040523480156200001157600080fd5b50600436106200005e5760003560e01c80636195d93114620000635780636678154614620000835780639aa83d7d146200009c578063aa4a871114620000b3578063c3254d9714620000cc575b600080fd5b6000546040516001600160a01b0390911681526020015b60405180910390f35b6200009a62000094366004620009b2565b620000e5565b005b6200009a620000ad366004620009b2565b6200040e565b620000bd620006eb565b6040516200007a919062000afc565b620000d66200074f565b6040516200007a919062000b4b565b6000546080820151825160405163729176c160e01b81526001600160a01b039093169263729176c1926200011e92909160040162000bef565b602060405180830381865afa1580156200013c573d6000803e3d6000fd5b505050506040513d601f19601f8201168201806040525081019062000162919062000c1d565b620001a15760405162461bcd60e51b815260206004820152600a602482015269139bc81c995c5d595cdd60b21b60448201526064015b60405180910390fd5b80604001516001600160a01b0316336001600160a01b031614620001f55760405162461bcd60e51b815260206004820152600a6024820152694e6f20626568616c667360b01b604482015260640162000198565b600054604051632f411b1360e01b81526001600160a01b0390911690632f411b13906200022790849060040162000d43565b602060405180830381865afa15801562000245573d6000803e3d6000fd5b505050506040513d601f19601f820116820180604052508101906200026b919062000c1d565b1515600114620002b65760405162461bcd60e51b815260206004820152601560248201527413db9b1e481c995c5d595cdd195908105b5bdd5b9d605a1b604482015260640162000198565b6000620002c382620007d4565b604080518082018252600060208083018281526001600160a01b0386811680865260808a0180518316865260038086528887208054600180820183559189528789208a519101805488519288166001600160a81b031991821617600160a01b931515840217909155845187168a528b8a2054855188168b526004808b528d8c20888d528b528d8c209190915583895233808c52948a528c8b2080549485018155808c528a8c208d51950180549a51958a169a90931699909917931515909202929092179091559087529354848652888720928752919094528685205592549151885160c08a01519651631458964d60e01b815297985094969290931694631458964d94620003d5949390920162000d58565b600060405180830381600087803b158015620003f057600080fd5b505af115801562000405573d6000803e3d6000fd5b50505050505050565b6000546040808301518351915160016223752160e01b031981526001600160a01b039093169263ffdc8adf9262000449929160040162000bef565b602060405180830381865afa15801562000467573d6000803e3d6000fd5b505050506040513d601f19601f820116820180604052508101906200048d919062000c1d565b620004c65760405162461bcd60e51b815260206004820152600860248201526727379027b33332b960c11b604482015260640162000198565b80608001516001600160a01b0316336001600160a01b0316146200051a5760405162461bcd60e51b815260206004820152600a6024820152694e6f20626568616c667360b01b604482015260640162000198565b600054604051633f80a5bd60e21b81526001600160a01b039091169063fe0296f4906200054c90849060040162000d43565b602060405180830381865afa1580156200056a573d6000803e3d6000fd5b505050506040513d601f19601f8201168201806040525081019062000590919062000c1d565b1515600114620005d35760405162461bcd60e51b815260206004820152600d60248201526c4f7574206f66206c696d69747360981b604482015260640162000198565b6000620005e082620007d4565b604080518082018252600060208083018281526001600160a01b03868116808652338086526003808652888720805460018082018355828a52888a208b519201805489519389166001600160a81b031991821617600160a01b941515850217909155948a5291546004808a528c8b20878c528a528c8b20919091558288528e8c01805188168b529389528b8a20805493840181558a52888a208b519301805498519388169890951697909717911515021790915580518316865287862054815184168752848652888720928752919094528685205592549151885160c08a0151965163a39fd99d60e01b81529798509496929093169463a39fd99d94620003d5949390920162000d58565b606060018054806020026020016040519081016040528092919081815260200182805480156200074557602002820191906000526020600020905b81546001600160a01b0316815260019091019060200180831162000726575b5050505050905090565b336000908152600360209081526040808320805482518185028101850190935280835260609492939192909184015b82821015620007cb57600084815260209081902060408051808201909152908401546001600160a01b0381168252600160a01b900460ff161515818301528252600190920191016200077e565b50505050905090565b60003382604051620007e690620008af565b620007f392919062000d8e565b604051809103906000f08015801562000810573d6000803e3d6000fd5b506001805480820182557fb10e2d527612073b26eecdfd717e6a320cf44b4afac2b0732d9fcbe2b7fa0cf60180546001600160a01b0319166001600160a01b03841690811790915590546000918252600260205260409182902055519091507fc7d2a4f79ba41471a2db2e8a7c88f0408dd272a55b01509291c042aeef9f178390620008a29083903390869062000db4565b60405180910390a1919050565b61161c8062000dec83390190565b634e487b7160e01b600052604160045260246000fd5b6040516101a0810167ffffffffffffffff81118282101715620008fa57620008fa620008bd565b60405290565b600082601f8301126200091257600080fd5b813567ffffffffffffffff80821115620009305762000930620008bd565b604051601f8301601f19908116603f011681019082821181831017156200095b576200095b620008bd565b816040528381528660208588010111156200097557600080fd5b836020870160208301376000602085830101528094505050505092915050565b80356001600160a01b0381168114620009ad57600080fd5b919050565b600060208284031215620009c557600080fd5b813567ffffffffffffffff80821115620009de57600080fd5b908301906101a08286031215620009f457600080fd5b620009fe620008d3565b82358281111562000a0e57600080fd5b62000a1c8782860162000900565b82525062000a2d6020840162000995565b602082015262000a406040840162000995565b604082015260608301358281111562000a5857600080fd5b62000a668782860162000900565b60608301525062000a7a6080840162000995565b608082015260a08301358281111562000a9257600080fd5b62000aa08782860162000900565b60a08301525060c0838101359082015260e0808401359082015261010080840135908201526101208084013590820152610140808401359082015261016080840135908201526101809283013592810192909252509392505050565b6020808252825182820181905260009190848201906040850190845b8181101562000b3f5783516001600160a01b03168352928401929184019160010162000b18565b50909695505050505050565b602080825282518282018190526000919060409081850190868401855b8281101562000b9a57815180516001600160a01b03168552860151151586850152928401929085019060010162000b68565b5091979650505050505050565b6000815180845260005b8181101562000bcf5760208185018101518683018201520162000bb1565b506000602082860101526020601f19601f83011685010191505092915050565b6001600160a01b038316815260406020820181905260009062000c159083018462000ba7565b949350505050565b60006020828403121562000c3057600080fd5b8151801515811462000c4157600080fd5b9392505050565b60006101a0825181855262000c608286018262000ba7565b915050602083015162000c7e60208601826001600160a01b03169052565b50604083015162000c9a60408601826001600160a01b03169052565b506060830151848203606086015262000cb4828262000ba7565b915050608083015162000cd260808601826001600160a01b03169052565b5060a083015184820360a086015262000cec828262000ba7565b60c0858101519087015260e080860151908701526101008086015190870152610120808601519087015261014080860151908701526101608086015190870152610180948501519490950193909352509192915050565b60208152600062000c41602083018462000c48565b6001600160a01b038416815260606020820181905260009062000d7e9083018562000ba7565b9050826040830152949350505050565b6001600160a01b038316815260406020820181905260009062000c159083018462000c48565b6001600160a01b0384811682528316602082015260606040820181905260009062000de29083018462000c48565b9594505050505056fe60806040526010805460ff191660011790553480156200001e57600080fd5b506040516200161c3803806200161c83398101604081905262000041916200029d565b81600160000180546001600160a01b039283166001600160a01b0319918216179091556020830151600080549190931691161790558051819060039081906200008b90826200048d565b5060208201516001820180546001600160a01b039283166001600160a01b031991821617909155604084015160028401805491909316911617905560608201516003820190620000dc90826200048d565b5060808201516004820180546001600160a01b0319166001600160a01b0390921691909117905560a082015160058201906200011990826200048d565b5060c0820151816006015560e082015181600701556101008201518160080155610120820151816009015561014082015181600a015561016082015181600b015561018082015181600c0155905050505062000559565b6001600160a01b03811681146200018657600080fd5b50565b634e487b7160e01b600052604160045260246000fd5b6040516101a081016001600160401b0381118282101715620001c557620001c562000189565b60405290565b604051601f8201601f191681016001600160401b0381118282101715620001f657620001f662000189565b604052919050565b600082601f8301126200021057600080fd5b81516001600160401b038111156200022c576200022c62000189565b602062000242601f8301601f19168201620001cb565b82815285828487010111156200025757600080fd5b60005b83811015620002775785810183015182820184015282016200025a565b506000928101909101919091529392505050565b8051620002988162000170565b919050565b60008060408385031215620002b157600080fd5b8251620002be8162000170565b60208401519092506001600160401b0380821115620002dc57600080fd5b908401906101a08287031215620002f257600080fd5b620002fc6200019f565b8251828111156200030c57600080fd5b6200031a88828601620001fe565b8252506200032b602084016200028b565b60208201526200033e604084016200028b565b60408201526060830151828111156200035657600080fd5b6200036488828601620001fe565b60608301525062000378608084016200028b565b608082015260a0830151828111156200039057600080fd5b6200039e88828601620001fe565b60a08301525060c0838101519082015260e080840151908201526101008084015190820152610120808401519082015261014080840151908201526101608084015190820152610180928301519281019290925250919491935090915050565b600181811c908216806200041357607f821691505b6020821081036200043457634e487b7160e01b600052602260045260246000fd5b50919050565b601f8211156200048857600081815260208120601f850160051c81016020861015620004635750805b601f850160051c820191505b8181101562000484578281556001016200046f565b5050505b505050565b81516001600160401b03811115620004a957620004a962000189565b620004c181620004ba8454620003fe565b846200043a565b602080601f831160018114620004f95760008415620004e05750858301515b600019600386901b1c1916600185901b17855562000484565b600085815260208120601f198616915b828110156200052a5788860151825594840194600190910190840162000509565b5085821015620005495787850151600019600388901b60f8161c191681555b5050505050600190811b01905550565b6110b380620005696000396000f3fe60806040526004361061004a5760003560e01c80630c3f6acf1461004f578063a3b9e39d1461007f578063c33e186e146100a1578063e5e82155146100b6578063f01ea9ca146100de575b600080fd5b34801561005b57600080fd5b506010546100699060ff1681565b6040516100769190610e37565b60405180910390f35b34801561008b57600080fd5b506100946100f1565b6040516100769190610ea5565b6100b46100af366004610fac565b6103c1565b005b3480156100c257600080fd5b50600b54600c5460408051928352602083019190915201610076565b6100b46100ec366004610fac565b610913565b610177604051806101a001604052806060815260200160006001600160a01b0316815260200160006001600160a01b031681526020016060815260200160006001600160a01b0316815260200160608152602001600081526020016000815260200160008152602001600081526020016000815260200160008152602001600081525090565b6003604051806101a001604052908160008201805461019590610fc5565b80601f01602080910402602001604051908101604052809291908181526020018280546101c190610fc5565b801561020e5780601f106101e35761010080835404028352916020019161020e565b820191906000526020600020905b8154815290600101906020018083116101f157829003601f168201915b505050918352505060018201546001600160a01b039081166020830152600283015416604082015260038201805460609092019161024b90610fc5565b80601f016020809104026020016040519081016040528092919081815260200182805461027790610fc5565b80156102c45780601f10610299576101008083540402835291602001916102c4565b820191906000526020600020905b8154815290600101906020018083116102a757829003601f168201915b505050918352505060048201546001600160a01b031660208201526005820180546040909201916102f490610fc5565b80601f016020809104026020016040519081016040528092919081815260200182805461032090610fc5565b801561036d5780601f106103425761010080835404028352916020019161036d565b820191906000526020600020905b81548152906001019060200180831161035057829003601f168201915b5050505050815260200160068201548152602001600782015481526020016008820154815260200160098201548152602001600a8201548152602001600b8201548152602001600c82015481525050905090565b6003604051806101a00160405290816000820180546103df90610fc5565b80601f016020809104026020016040519081016040528092919081815260200182805461040b90610fc5565b80156104585780601f1061042d57610100808354040283529160200191610458565b820191906000526020600020905b81548152906001019060200180831161043b57829003601f168201915b505050918352505060018201546001600160a01b039081166020830152600283015416604082015260038201805460609092019161049590610fc5565b80601f01602080910402602001604051908101604052809291908181526020018280546104c190610fc5565b801561050e5780601f106104e35761010080835404028352916020019161050e565b820191906000526020600020905b8154815290600101906020018083116104f157829003601f168201915b505050918352505060048201546001600160a01b0316602082015260058201805460409092019161053e90610fc5565b80601f016020809104026020016040519081016040528092919081815260200182805461056a90610fc5565b80156105b75780601f1061058c576101008083540402835291602001916105b7565b820191906000526020600020905b81548152906001019060200180831161059a57829003601f168201915b5050505050815260200160068201548152602001600782015481526020016008820154815260200160098201548152602001600a8201548152602001600b8201548152602001600c8201548152505080608001516001600160a01b0316336001600160a01b0316148061063f575080604001516001600160a01b0316336001600160a01b0316145b61064857600080fd5b60008060105460ff16600281111561066257610662610e21565b1461066c57600080fd5b6007546001600160a01b031633146106cb5760405162461bcd60e51b815260206004820152601860248201527f596f7520617265206e6f742074686520626f72726f776572000000000000000060448201526064015b60405180910390fd5b600b5461071a5760405162461bcd60e51b815260206004820152601760248201527f5468657265206973206e6f7468696e6720746f2070617900000000000000000060448201526064016106c2565b6000546040516370a0823160e01b815233600482015284916001600160a01b0316906370a0823190602401602060405180830381865afa158015610762573d6000803e3d6000fd5b505050506040513d601f19601f820116820180604052508101906107869190610fff565b10156107c85760405162461bcd60e51b8152602060048201526011602482015270496e737566696369656e742046756e647360781b60448201526064016106c2565b6000546005546040516323b872dd60e01b81523360048201526001600160a01b039182166024820152604481018690529116906323b872dd906064016020604051808303816000875af1158015610823573d6000803e3d6000fd5b505050506040513d601f19601f820116820180604052508101906108479190611018565b61088a5760405162461bcd60e51b81526020600482015260146024820152732330b4b632b2103a37902932b830bc903637b0b760611b60448201526064016106c2565b600b546108979084610e00565b600b55600c546108a79084610e15565b600c55600554604080514281526001600160a01b03909216602083015281018490527f512d3e65b3e58c2187bb1872aa435dba5bd09c1c03823ba56ab70aac411e4a219060600160405180910390a1600b5460000361090e576010805460ff191660021790555b505050565b6003604051806101a001604052908160008201805461093190610fc5565b80601f016020809104026020016040519081016040528092919081815260200182805461095d90610fc5565b80156109aa5780601f1061097f576101008083540402835291602001916109aa565b820191906000526020600020905b81548152906001019060200180831161098d57829003601f168201915b505050918352505060018201546001600160a01b03908116602083015260028301541660408201526003820180546060909201916109e790610fc5565b80601f0160208091040260200160405190810160405280929190818152602001828054610a1390610fc5565b8015610a605780601f10610a3557610100808354040283529160200191610a60565b820191906000526020600020905b815481529060010190602001808311610a4357829003601f168201915b505050918352505060048201546001600160a01b03166020820152600582018054604090920191610a9090610fc5565b80601f0160208091040260200160405190810160405280929190818152602001828054610abc90610fc5565b8015610b095780601f10610ade57610100808354040283529160200191610b09565b820191906000526020600020905b815481529060010190602001808311610aec57829003601f168201915b5050505050815260200160068201548152602001600782015481526020016008820154815260200160098201548152602001600a8201548152602001600b8201548152602001600c8201548152505080608001516001600160a01b0316336001600160a01b03161480610b91575080604001516001600160a01b0316336001600160a01b0316145b610b9a57600080fd5b60018060105460ff166002811115610bb457610bb4610e21565b14610bbe57600080fd5b6005546001600160a01b03163314610c115760405162461bcd60e51b81526020600482015260166024820152752cb7ba9030b932903737ba103a3432903632b73232b960511b60448201526064016106c2565b6009546000546040516370a0823160e01b81523360048201526001600160a01b03909116906370a0823190602401602060405180830381865afa158015610c5c573d6000803e3d6000fd5b505050506040513d601f19601f82011682018060405250810190610c809190610fff565b1015610cc25760405162461bcd60e51b8152602060048201526011602482015270496e737566696369656e742046756e647360781b60448201526064016106c2565b6000546007546040516323b872dd60e01b81523360048201526001600160a01b039182166024820152604481018690529116906323b872dd906064016020604051808303816000875af1158015610d1d573d6000803e3d6000fd5b505050506040513d601f19601f82011682018060405250810190610d419190611018565b610d835760405162461bcd60e51b81526020600482015260136024820152722330b4b632b2103a3790233ab732103637b0b760691b60448201526064016106c2565b600280546001600160a01b03191633179055600b54610da29084610e15565b600b556010805460ff19169055600754604080514281526001600160a01b03909216602083015281018490527fbd7ef6c6281278f6c8ac4ae9ef2f205b52425813c288dd47c377cb6b59c5076e9060600160405180910390a1505050565b6000610e0c8284611057565b90505b92915050565b6000610e0c828461106a565b634e487b7160e01b600052602160045260246000fd5b6020810160038310610e5957634e487b7160e01b600052602160045260246000fd5b91905290565b6000815180845260005b81811015610e8557602081850181015186830182015201610e69565b506000602082860101526020601f19601f83011685010191505092915050565b60208152600082516101a0806020850152610ec46101c0850183610e5f565b91506020850151610ee060408601826001600160a01b03169052565b5060408501516001600160a01b0381166060860152506060850151601f1980868503016080870152610f128483610e5f565b935060808701519150610f3060a08701836001600160a01b03169052565b60a08701519150808685030160c087015250610f4c8382610e5f565b60c087015160e0878101919091528701516101008088019190915287015161012080880191909152870151610140808801919091528701516101608088019190915287015161018080880191909152909601519190940152509192915050565b600060208284031215610fbe57600080fd5b5035919050565b600181811c90821680610fd957607f821691505b602082108103610ff957634e487b7160e01b600052602260045260246000fd5b50919050565b60006020828403121561101157600080fd5b5051919050565b60006020828403121561102a57600080fd5b8151801515811461103a57600080fd5b9392505050565b634e487b7160e01b600052601160045260246000fd5b81810381811115610e0f57610e0f611041565b80820180821115610e0f57610e0f61104156fea2646970667358221220ff195cfdfca9d1ae8bd757b5283e445accc7fcfc704fda4765638a1fc3a9e25364736f6c63430008110033a26469706673582212202e2ae73703516340e31489ced14974c7f9b81d2dcbf3f5990a8b9379f676250964736f6c6343000811003360806040523480156200001157600080fd5b506040516200315d3803806200315d83398101604081905262000034916200005a565b600080546001600160a01b0319166001600160a01b03929092169190911790556200008c565b6000602082840312156200006d57600080fd5b81516001600160a01b03811681146200008557600080fd5b9392505050565b6130c1806200009c6000396000f3fe608060405234801561001057600080fd5b50600436106100b45760003560e01c8063a165527811610071578063a16552781461014a578063a39fd99d14610152578063e193ed0a14610165578063fb1a002a14610178578063fe0296f414610180578063ffdc8adf1461019357600080fd5b8063037852c7146100b95780631458964d146100d75780632f411b13146100ec578063729176c11461010f57806374b4ecd51461012257806391eace8b14610135575b600080fd5b6100c16101a6565b6040516100ce919061271d565b60405180910390f35b6100ea6100e53660046128b4565b610388565b005b6100ff6100fa36600461290d565b610565565b60405190151581526020016100ce565b6100ff61011d366004612a43565b6105e7565b6100ea610130366004612a93565b610857565b61013d610ac1565b6040516100ce9190612bf9565b6100c1610c90565b6100ea6101603660046128b4565b610e5e565b6100ea610173366004612c4e565b611051565b61013d611298565b6100ff61018e36600461290d565b61145c565b6100ff6101a1366004612a43565b611593565b336000908152600360209081526040808320805482518185028101850190935280835260609492939192909184015b8282101561037f57838290600052602060002090600902016040518061012001604052908160008201805461020990612d26565b80601f016020809104026020016040519081016040528092919081815260200182805461023590612d26565b80156102825780601f1061025757610100808354040283529160200191610282565b820191906000526020600020905b81548152906001019060200180831161026557829003601f168201915b505050918352505060018201546001600160a01b031660208201526002820180546040909201916102b290612d26565b80601f01602080910402602001604051908101604052809291908181526020018280546102de90612d26565b801561032b5780601f106103005761010080835404028352916020019161032b565b820191906000526020600020905b81548152906001019060200180831161030e57829003601f168201915b505050505081526020016003820154815260200160048201548152602001600582015481526020016006820154815260200160078201548152602001600882015481525050815260200190600101906101d5565b50505050905090565b6000546001600160a01b031633146103d85760405162461bcd60e51b815260206004820152600e60248201526d139bdd08185d5d1a1bdc9a5cd95960921b60448201526064015b60405180910390fd5b6001600160a01b0383166000908152600760209081526040808320600890925291829020915161045d9284929161042d91600191610417908990612d60565b90815260405190819003602001902054906117b9565b8154811061043d5761043d612d7c565b9060005260206000209060080201600401546117b990919063ffffffff16565b6001600160a01b0384166000908152600760209081526040808320600890925291829020915190916104989160019190610417908890612d60565b815481106104a8576104a8612d7c565b9060005260206000209060080201600401819055506104d881600561042d60016006876040516104179190612d60565b60056104ef60016006866040516104179190612d60565b815481106104ff576104ff612d7c565b906000526020600020906008020160040181905550600561052b60016006856040516104179190612d60565b8154811061053b5761053b612d7c565b9060005260206000209060080201600401546000036105605761055e83836117cc565b505b505050565b60c08101516080820180516001600160a01b039081166000908152600760209081526040808320945190931682526008905281812085519251919493926105b3926001929161041791612d60565b815481106105c3576105c3612d7c565b906000526020600020906008020160040154036105e257506001919050565b919050565b60055460009081036105fb57506000610851565b6001600160a01b038316600090815260076020526040812054900361062257506000610851565b6001600160a01b03831660009081526007602090815260408083206008909252808320905161065991600191610417908890612d60565b8154811061066957610669612d7c565b90600052602060002090600802016040518061010001604052908160008201805461069390612d26565b80601f01602080910402602001604051908101604052809291908181526020018280546106bf90612d26565b801561070c5780601f106106e15761010080835404028352916020019161070c565b820191906000526020600020905b8154815290600101906020018083116106ef57829003601f168201915b505050918352505060018201546001600160a01b0316602082015260028201805460409092019161073c90612d26565b80601f016020809104026020016040519081016040528092919081815260200182805461076890612d26565b80156107b55780601f1061078a576101008083540402835291602001916107b5565b820191906000526020600020905b81548152906001019060200180831161079857829003601f168201915b50505050508152602001600382015481526020016004820154815260200160058201548152602001600682015481526020016007820154815250509050826040516020016108039190612d92565b60408051601f198184030181529082905280516020918201208351909261082a9201612d92565b604051602081830303815290604052805190602001200361084f576001915050610851565b505b92915050565b80602001516001600160a01b0316336001600160a01b0316146108ac5760405162461bcd60e51b815260206004820152600d60248201526c26bab9ba1031329037bbb732b960991b60448201526064016103cf565b600180548082018255600091909152815182916009027fb10e2d527612073b26eecdfd717e6a320cf44b4afac2b0732d9fcbe2b7fa0cf6019081906108f19082612df3565b5060208201516001820180546001600160a01b0319166001600160a01b039092169190911790556040820151600282019061092c9082612df3565b50606082015160038201556080820151600482015560a0820151600582015560c0820151600682015560e0820151600782015561010090910151600890910155600154815160405160029161098091612d60565b9081526040805160209281900383019020929092553360009081526003825291822080546001810182559083529120825183926009029091019081906109c69082612df3565b5060208201516001820180546001600160a01b0319166001600160a01b0390921691909117905560408201516002820190610a019082612df3565b506060820151600380830191909155608083015160048084019190915560a0840151600584015560c0840151600684015560e0840151600784015561010090930151600890920191909155336000908152602091825260408082205493909252819020835191519091610a7391612d60565b9081526020016040518091039020819055507f624e011e4b52ef198d112de2fc9c636688135cf9134a8bd5e3654966c872512f3382604051610ab6929190612eb3565b60405180910390a150565b336000908152600760209081526040808320805482518185028101850190935280835260609492939192909184015b8282101561037f578382906000526020600020906008020160405180610100016040529081600082018054610b2490612d26565b80601f0160208091040260200160405190810160405280929190818152602001828054610b5090612d26565b8015610b9d5780601f10610b7257610100808354040283529160200191610b9d565b820191906000526020600020905b815481529060010190602001808311610b8057829003601f168201915b505050918352505060018201546001600160a01b03166020820152600282018054604090920191610bcd90612d26565b80601f0160208091040260200160405190810160405280929190818152602001828054610bf990612d26565b8015610c465780601f10610c1b57610100808354040283529160200191610c46565b820191906000526020600020905b815481529060010190602001808311610c2957829003601f168201915b505050505081526020016003820154815260200160048201548152602001600582015481526020016006820154815260200160078201548152505081526020019060010190610af0565b60606001805480602002602001604051908101604052809291908181526020016000905b8282101561037f578382906000526020600020906009020160405180610120016040529081600082018054610ce890612d26565b80601f0160208091040260200160405190810160405280929190818152602001828054610d1490612d26565b8015610d615780601f10610d3657610100808354040283529160200191610d61565b820191906000526020600020905b815481529060010190602001808311610d4457829003601f168201915b505050918352505060018201546001600160a01b03166020820152600282018054604090920191610d9190612d26565b80601f0160208091040260200160405190810160405280929190818152602001828054610dbd90612d26565b8015610e0a5780601f10610ddf57610100808354040283529160200191610e0a565b820191906000526020600020905b815481529060010190602001808311610ded57829003601f168201915b50505050508152602001600382015481526020016004820154815260200160058201548152602001600682015481526020016007820154815260200160088201548152505081526020019060010190610cb4565b6000546001600160a01b03163314610ea95760405162461bcd60e51b815260206004820152600e60248201526d139bdd08185d5d1a1bdc9a5cd95960921b60448201526064016103cf565b6001600160a01b03831660009081526003602090815260408083206004909252918290209151610f1892849291610ee891600191610417908990612d60565b81548110610ef857610ef8612d7c565b9060005260206000209060090201600301546117b990919063ffffffff16565b6001600160a01b038416600090815260036020908152604080832060049092529182902091519091610f539160019190610417908890612d60565b81548110610f6357610f63612d7c565b906000526020600020906009020160030181905550610f93816001610ee860016002876040516104179190612d60565b6001610faa60016002866040516104179190612d60565b81548110610fba57610fba612d7c565b9060005260206000209060090201600301819055506001610fe660016002856040516104179190612d60565b81548110610ff657610ff6612d7c565b906000526020600020906009020160040154600161101f60016002866040516104179190612d60565b8154811061102f5761102f612d7c565b90600052602060002090600902016003015410156105605761055e8383611eb9565b80602001516001600160a01b0316336001600160a01b0316146110a65760405162461bcd60e51b815260206004820152600d60248201526c26bab9ba1031329037bbb732b960991b60448201526064016103cf565b60058054600181018255600091909152815182916008027f036b6384b5eca791c62761152d0c79bb0604c104a5fb6f4eb0703f3154bb3db0019081906110ec9082612df3565b5060208201516001820180546001600160a01b0319166001600160a01b03909216919091179055604082015160028201906111279082612df3565b50606082015181600301556080820151816004015560a0820151816005015560c0820151816006015560e082015181600701555050600580549050600682600001516040516111769190612d60565b9081526040805160209281900383019020929092553360009081526007825291822080546001810182559083529120825183926008029091019081906111bc9082612df3565b5060208201516001820180546001600160a01b0319166001600160a01b03909216919091179055604082015160028201906111f79082612df3565b50606082015160038201556080820151600482015560a0820151600582015560c0820151600682015560e090910151600791820155336000908152602091825260408082205460089093529081902083519151909161125591612d60565b9081526020016040518091039020819055507fd4be193b0fb9651ab4bdfd0aa5bfdcb6955b434e712c7b23e680d5f9a97afc773382604051610ab6929190612edf565b60606005805480602002602001604051908101604052809291908181526020016000905b8282101561037f5783829060005260206000209060080201604051806101000160405290816000820180546112f090612d26565b80601f016020809104026020016040519081016040528092919081815260200182805461131c90612d26565b80156113695780601f1061133e57610100808354040283529160200191611369565b820191906000526020600020905b81548152906001019060200180831161134c57829003601f168201915b505050918352505060018201546001600160a01b0316602082015260028201805460409092019161139990612d26565b80601f01602080910402602001604051908101604052809291908181526020018280546113c590612d26565b80156114125780601f106113e757610100808354040283529160200191611412565b820191906000526020600020905b8154815290600101906020018083116113f557829003601f168201915b5050505050815260200160038201548152602001600482015481526020016005820154815260200160068201548152602001600782015481525050815260200190600101906112bc565b604080820180516001600160a01b039081166000908152600360209081528482209351909216815260049091528281208451935191938493926114a89260019290916104179190612d60565b815481106114b8576114b8612d7c565b600091825260208083206004600990930201820154604080880180516001600160a01b039081168752600385528287209151168652939092528184208751925191955061150c926001926104179190612d60565b8154811061151c5761151c612d7c565b9060005260206000209060090201600501549050818460c00151101580156115485750808460c0015111155b6115895760405162461bcd60e51b81526020600482015260126024820152716f6e6c792077697468696e206c696d69747360701b60448201526064016103cf565b5060019392505050565b60015460009081036115a757506000610851565b6001600160a01b03831660009081526003602052604081205490036115ce57506000610851565b6001600160a01b03831660009081526003602090815260408083206004909252808320905161160591600191610417908890612d60565b8154811061161557611615612d7c565b90600052602060002090600902016040518061012001604052908160008201805461163f90612d26565b80601f016020809104026020016040519081016040528092919081815260200182805461166b90612d26565b80156116b85780601f1061168d576101008083540402835291602001916116b8565b820191906000526020600020905b81548152906001019060200180831161169b57829003601f168201915b505050918352505060018201546001600160a01b031660208201526002820180546040909201916116e890612d26565b80601f016020809104026020016040519081016040528092919081815260200182805461171490612d26565b80156117615780601f1061173657610100808354040283529160200191611761565b820191906000526020600020905b81548152906001019060200180831161174457829003601f168201915b5050505050815260200160038201548152602001600482015481526020016005820154815260200160068201548152602001600782015481526020016008820154815250509050826040516020016108039190612d92565b60006117c58284612f03565b9392505050565b6001600160a01b03821660009081526007602052604081205461181f5760405162461bcd60e51b815260206004820152600b60248201526a4e6f20726571756573747360a81b60448201526064016103cf565b6001600160a01b0383166000908152600760205260409020546001148061188757506001600160a01b0383166000908152600760209081526040808320546008909252918290209151909190611876908590612d60565b908152602001604051809103902054145b15611965576001600160a01b0383166000908152600860205260409081902090516118b3908490612d60565b90815260200160405180910390206000905560076000846001600160a01b03166001600160a01b031681526020019081526020016000208054806118f9576118f9612f24565b6000828152602081206000199092019160088302019061191982826125e1565b6001820180546001600160a01b03191690556119396002830160006125e1565b506000600382018190556004820181905560058201819055600682018190556007909101559055611bef565b6001600160a01b0383166000908152600760205260409020805461198a9060016117b9565b8154811061199a5761199a612d7c565b600091825260208083206001600160a01b0387168452600782526040808520600893849052948190209051939092020192916119de91600191610417908890612d60565b815481106119ee576119ee612d7c565b6000918252602090912060089091020180611a098382612f3a565b5060018281015490820180546001600160a01b0319166001600160a01b03909216919091179055600280820190611a4290840182612f3a565b50600382810154908201556004808301549082015560058083015490820155600680830154908201556007918201549101556001600160a01b038316600090815260086020526040908190209051611a9b908490612d60565b9081526040805160209281900383019020546001600160a01b0386166000908152600884528281206007909452919091208054919291611adc9060016117b9565b81548110611aec57611aec612d7c565b9060005260206000209060080201600001604051611b0a9190613015565b9081526040805160209281900383018120939093556001600160a01b03861660009081526008909252902090611b41908490612d60565b90815260200160405180910390206000905560076000846001600160a01b03166001600160a01b03168152602001908152602001600020805480611b8757611b87612f24565b60008281526020812060001990920191600883020190611ba782826125e1565b6001820180546001600160a01b0319169055611bc76002830160006125e1565b5060006003820181905560048201819055600582018190556006820181905560079091015590555b60055460011480611c205750600554604051600690611c0f908590612d60565b908152602001604051809103902054145b15611cc457600682604051611c359190612d60565b9081526020016040518091039020600090556005805480611c5857611c58612f24565b60008281526020812060001990920191600883020190611c7882826125e1565b6001820180546001600160a01b0319169055611c986002830160006125e1565b506000600382018190556004820181905560058201819055600682018190556007909101559055611eb0565b60058054611cd39060016117b9565b81548110611ce357611ce3612d7c565b90600052602060002090600802016005611d0860016006866040516104179190612d60565b81548110611d1857611d18612d7c565b6000918252602090912060089091020180611d338382612f3a565b5060018281015490820180546001600160a01b0319166001600160a01b03909216919091179055600280820190611d6c90840182612f3a565b506003820154816003015560048201548160040155600582015481600501556006820154816006015560078201548160070155905050600682604051611db29190612d60565b908152604051908190036020019020546005805460069190611dd59060016117b9565b81548110611de557611de5612d7c565b9060005260206000209060080201600001604051611e039190613015565b908152602001604051809103902081905550600682604051611e259190612d60565b9081526020016040518091039020600090556005805480611e4857611e48612f24565b60008281526020812060001990920191600883020190611e6882826125e1565b6001820180546001600160a01b0319169055611e886002830160006125e1565b5060006003820181905560048201819055600582018190556006820181905560079091015590555b50600192915050565b6001600160a01b038216600090815260036020526040812054611f0a5760405162461bcd60e51b81526020600482015260096024820152684e6f206f666665727360b81b60448201526064016103cf565b6001600160a01b03831660009081526003602052604090205460011480611f7257506001600160a01b0383166000908152600360209081526040808320546004909252918290209151909190611f61908590612d60565b908152602001604051809103902054145b15612057576001600160a01b038316600090815260046020526040908190209051611f9e908490612d60565b90815260200160405180910390206000905560036000846001600160a01b03166001600160a01b03168152602001908152602001600020805480611fe457611fe4612f24565b6000828152602081206000199092019160098302019061200482826125e1565b6001820180546001600160a01b03191690556120246002830160006125e1565b50600060038201819055600482018190556005820181905560068201819055600782018190556008909101559055612303565b6001600160a01b0383166000908152600360205260409020805461207c9060016117b9565b8154811061208c5761208c612d7c565b600091825260208083206001600160a01b038716845260038252604080852060049093529384902093516009909302019290916120d191600191610417908890612d60565b815481106120e1576120e1612d7c565b60009182526020909120600990910201806120fc8382612f3a565b5060018281015490820180546001600160a01b0319166001600160a01b0390921691909117905560028082019061213590840182612f3a565b5060038201548160030155600482015481600401556005820154816005015560068201548160060155600782015481600701556008820154816008015590505060046000846001600160a01b03166001600160a01b03168152602001908152602001600020826040516121a89190612d60565b9081526040805160209281900383019020546001600160a01b03861660009081526004845282812060039094529190912080549192916121e99060016117b9565b815481106121f9576121f9612d7c565b90600052602060002090600902016000016040516122179190613015565b9081526040805160209281900383018120939093556001600160a01b0386166000908152600490925290209061224e908490612d60565b90815260200160405180910390206000905560036000846001600160a01b03166001600160a01b0316815260200190815260200160002080548061229457612294612f24565b600082815260208120600019909201916009830201906122b482826125e1565b6001820180546001600160a01b03191690556122d46002830160006125e1565b506000600382018190556004820181905560058201819055600682018190556007820181905560089091015590555b6001805414806123335750600154604051600290612322908590612d60565b908152602001604051809103902054145b156123de576002826040516123489190612d60565b908152602001604051809103902060009055600180548061236b5761236b612f24565b6000828152602081206000199092019160098302019061238b82826125e1565b6001820180546001600160a01b03191690556123ab6002830160006125e1565b50600060038201819055600482018190556005820181905560068201819055600782018190556008909101559055611eb0565b600180546123ec90826117b9565b815481106123fc576123fc612d7c565b9060005260206000209060090201600161242160016002866040516104179190612d60565b8154811061243157612431612d7c565b600091825260209091206009909102018061244c8382612f3a565b5060018281015490820180546001600160a01b0319166001600160a01b0390921691909117905560028082019061248590840182612f3a565b506003820154816003015560048201548160040155600582015481600501556006820154816006015560078201548160070155600882015481600801559050506002826040516124d59190612d60565b9081526040519081900360200190205460018054600291906124f790826117b9565b8154811061250757612507612d7c565b90600052602060002090600902016000016040516125259190613015565b9081526020016040518091039020819055506002826040516125479190612d60565b908152602001604051809103902060009055600180548061256a5761256a612f24565b6000828152602081206000199092019160098302019061258a82826125e1565b6001820180546001600160a01b03191690556125aa6002830160006125e1565b5060006003820181905560048201819055600582018190556006820181905560078201819055600890910155905550600192915050565b5080546125ed90612d26565b6000825580601f106125fd575050565b601f01602090049060005260206000209081019061261b919061261e565b50565b5b80821115612633576000815560010161261f565b5090565b60005b8381101561265257818101518382015260200161263a565b50506000910152565b60008151808452612673816020860160208601612637565b601f01601f19169290920160200192915050565b6000610120825181855261269d8286018261265b565b91505060208301516126ba60208601826001600160a01b03169052565b50604083015184820360408601526126d2828261265b565b915050606083015160608501526080830151608085015260a083015160a085015260c083015160c085015260e083015160e08501526101008084015181860152508091505092915050565b6000602080830181845280855180835260408601915060408160051b870101925083870160005b8281101561277257603f19888603018452612760858351612687565b94509285019290850190600101612744565b5092979650505050505050565b6001600160a01b038116811461261b57600080fd5b80356105e28161277f565b634e487b7160e01b600052604160045260246000fd5b6040516101a0810167ffffffffffffffff811182821017156127d9576127d961279f565b60405290565b604051610120810167ffffffffffffffff811182821017156127d9576127d961279f565b604051610100810167ffffffffffffffff811182821017156127d9576127d961279f565b600082601f83011261283857600080fd5b813567ffffffffffffffff808211156128535761285361279f565b604051601f8301601f19908116603f0116810190828211818310171561287b5761287b61279f565b8160405283815286602085880101111561289457600080fd5b836020870160208301376000602085830101528094505050505092915050565b6000806000606084860312156128c957600080fd5b83356128d48161277f565b9250602084013567ffffffffffffffff8111156128f057600080fd5b6128fc86828701612827565b925050604084013590509250925092565b60006020828403121561291f57600080fd5b813567ffffffffffffffff8082111561293757600080fd5b908301906101a0828603121561294c57600080fd5b6129546127b5565b82358281111561296357600080fd5b61296f87828601612827565b82525061297e60208401612794565b602082015261298f60408401612794565b60408201526060830135828111156129a657600080fd5b6129b287828601612827565b6060830152506129c460808401612794565b608082015260a0830135828111156129db57600080fd5b6129e787828601612827565b60a08301525060c0838101359082015260e0808401359082015261010080840135908201526101208084013590820152610140808401359082015261016080840135908201526101809283013592810192909252509392505050565b60008060408385031215612a5657600080fd5b8235612a618161277f565b9150602083013567ffffffffffffffff811115612a7d57600080fd5b612a8985828601612827565b9150509250929050565b600060208284031215612aa557600080fd5b813567ffffffffffffffff80821115612abd57600080fd5b908301906101208286031215612ad257600080fd5b612ada6127df565b823582811115612ae957600080fd5b612af587828601612827565b825250612b0460208401612794565b6020820152604083013582811115612b1b57600080fd5b612b2787828601612827565b604083015250606083013560608201526080830135608082015260a083013560a082015260c083013560c082015260e083013560e08201526101009150818301358282015280935050505092915050565b60006101008251818552612b8e8286018261265b565b91505060018060a01b03602084015116602085015260408301518482036040860152612bba828261265b565b915050606083015160608501526080830151608085015260a083015160a085015260c083015160c085015260e083015160e08501528091505092915050565b6000602080830181845280855180835260408601915060408160051b870101925083870160005b8281101561277257603f19888603018452612c3c858351612b78565b94509285019290850190600101612c20565b600060208284031215612c6057600080fd5b813567ffffffffffffffff80821115612c7857600080fd5b908301906101008286031215612c8d57600080fd5b612c95612803565b823582811115612ca457600080fd5b612cb087828601612827565b825250612cbf60208401612794565b6020820152604083013582811115612cd657600080fd5b612ce287828601612827565b604083015250606083013560608201526080830135608082015260a083013560a082015260c083013560c082015260e083013560e082015280935050505092915050565b600181811c90821680612d3a57607f821691505b602082108103612d5a57634e487b7160e01b600052602260045260246000fd5b50919050565b60008251612d72818460208701612637565b9190910192915050565b634e487b7160e01b600052603260045260246000fd5b6020815260006117c5602083018461265b565b601f82111561056057600081815260208120601f850160051c81016020861015612dcc5750805b601f850160051c820191505b81811015612deb57828155600101612dd8565b505050505050565b815167ffffffffffffffff811115612e0d57612e0d61279f565b612e2181612e1b8454612d26565b84612da5565b602080601f831160018114612e565760008415612e3e5750858301515b600019600386901b1c1916600185901b178555612deb565b600085815260208120601f198616915b82811015612e8557888601518255948401946001909101908401612e66565b5085821015612ea35787850151600019600388901b60f8161c191681555b5050505050600190811b01905550565b6001600160a01b0383168152604060208201819052600090612ed790830184612687565b949350505050565b6001600160a01b0383168152604060208201819052600090612ed790830184612b78565b8181038181111561085157634e487b7160e01b600052601160045260246000fd5b634e487b7160e01b600052603160045260246000fd5b818103612f45575050565b612f4f8254612d26565b67ffffffffffffffff811115612f6757612f6761279f565b612f7581612e1b8454612d26565b6000601f821160018114612fa95760008315612f915750848201545b600019600385901b1c1916600184901b17845561300e565b600085815260209020601f19841690600086815260209020845b83811015612fe35782860154825560019586019590910190602001612fc3565b50858310156130015781850154600019600388901b60f8161c191681555b50505060018360011b0184555b5050505050565b600080835461302381612d26565b6001828116801561303b57600181146130505761307f565b60ff198416875282151583028701945061307f565b8760005260208060002060005b858110156130765781548a82015290840190820161305d565b50505082870194505b5092969550505050505056fea264697066735822122006ff346d3f254d0fe8156888266f3b7e3dbb320d2907402a659ca60bac82b71f64736f6c63430008110033",
  "devdoc": {
    "kind": "dev",
    "methods": {},
    "version": 1
  },
  "userdoc": {
    "kind": "user",
    "methods": {},
    "version": 1
  },
  "storageLayout": {
    "storage": [
      {
        "astId": 9640,
        "contract": "src/Loans.sol:Loans",
        "label": "ONR",
        "offset": 0,
        "slot": "0",
        "type": "t_contract(LoanONRs)9624"
      },
      {
        "astId": 9650,
        "contract": "src/Loans.sol:Loans",
        "label": "activeLoans",
        "offset": 0,
        "slot": "1",
        "type": "t_array(t_contract(P2PLoan)10348)dyn_storage"
      },
      {
        "astId": 9655,
        "contract": "src/Loans.sol:Loans",
        "label": "loanIndex",
        "offset": 0,
        "slot": "2",
        "type": "t_mapping(t_contract(P2PLoan)10348,t_uint256)"
      },
      {
        "astId": 9661,
        "contract": "src/Loans.sol:Loans",
        "label": "myActiveLoans",
        "offset": 0,
        "slot": "3",
        "type": "t_mapping(t_address,t_array(t_struct(ActiveLoan)9646_storage)dyn_storage)"
      },
      {
        "astId": 9668,
        "contract": "src/Loans.sol:Loans",
        "label": "myLoanIdx",
        "offset": 0,
        "slot": "4",
        "type": "t_mapping(t_address,t_mapping(t_contract(P2PLoan)10348,t_uint256))"
      }
    ],
    "types": {
      "t_address": {
        "encoding": "inplace",
        "label": "address",
        "numberOfBytes": "20"
      },
      "t_array(t_contract(P2PLoan)10348)dyn_storage": {
        "base": "t_contract(P2PLoan)10348",
        "encoding": "dynamic_array",
        "label": "contract P2PLoan[]",
        "numberOfBytes": "32"
      },
      "t_array(t_struct(ActiveLoan)9646_storage)dyn_storage": {
        "base": "t_struct(ActiveLoan)9646_storage",
        "encoding": "dynamic_array",
        "label": "struct Loans.ActiveLoan[]",
        "numberOfBytes": "32"
      },
      "t_bool": {
        "encoding": "inplace",
        "label": "bool",
        "numberOfBytes": "1"
      },
      "t_contract(LoanONRs)9624": {
        "encoding": "inplace",
        "label": "contract LoanONRs",
        "numberOfBytes": "20"
      },
      "t_contract(P2PLoan)10348": {
        "encoding": "inplace",
        "label": "contract P2PLoan",
        "numberOfBytes": "20"
      },
      "t_mapping(t_address,t_array(t_struct(ActiveLoan)9646_storage)dyn_storage)": {
        "encoding": "mapping",
        "key": "t_address",
        "label": "mapping(address => struct Loans.ActiveLoan[])",
        "numberOfBytes": "32",
        "value": "t_array(t_struct(ActiveLoan)9646_storage)dyn_storage"
      },
      "t_mapping(t_address,t_mapping(t_contract(P2PLoan)10348,t_uint256))": {
        "encoding": "mapping",
        "key": "t_address",
        "label": "mapping(address => mapping(contract P2PLoan => uint256))",
        "numberOfBytes": "32",
        "value": "t_mapping(t_contract(P2PLoan)10348,t_uint256)"
      },
      "t_mapping(t_contract(P2PLoan)10348,t_uint256)": {
        "encoding": "mapping",
        "key": "t_contract(P2PLoan)10348",
        "label": "mapping(contract P2PLoan => uint256)",
        "numberOfBytes": "32",
        "value": "t_uint256"
      },
      "t_struct(ActiveLoan)9646_storage": {
        "encoding": "inplace",
        "label": "struct Loans.ActiveLoan",
        "members": [
          {
            "astId": 9643,
            "contract": "src/Loans.sol:Loans",
            "label": "loanAddress",
            "offset": 0,
            "slot": "0",
            "type": "t_contract(P2PLoan)10348"
          },
          {
            "astId": 9645,
            "contract": "src/Loans.sol:Loans",
            "label": "lent",
            "offset": 20,
            "slot": "0",
            "type": "t_bool"
          }
        ],
        "numberOfBytes": "32"
      },
      "t_uint256": {
        "encoding": "inplace",
        "label": "uint256",
        "numberOfBytes": "32"
      }
    }
  }
}