{
  "address": "0xF49b85Df8b3008714CfED3848F4fe7c1e46666a0",
  "abi": [
    {
      "inputs": [],
      "stateMutability": "nonpayable",
      "type": "constructor"
    },
    {
      "anonymous": false,
      "inputs": [
        {
          "indexed": false,
          "internalType": "address",
          "name": "lender",
          "type": "address"
        },
        {
          "components": [
            {
              "components": [
                {
                  "internalType": "string",
                  "name": "loanId",
                  "type": "string"
                },
                {
                  "internalType": "contract IERC20",
                  "name": "token",
                  "type": "address"
                },
                {
                  "internalType": "address payable",
                  "name": "initiator",
                  "type": "address"
                },
                {
                  "internalType": "uint256",
                  "name": "principal",
                  "type": "uint256"
                },
                {
                  "internalType": "uint256",
                  "name": "interest",
                  "type": "uint256"
                },
                {
                  "internalType": "uint256",
                  "name": "minDuration",
                  "type": "uint256"
                },
                {
                  "internalType": "uint256",
                  "name": "maxDuration",
                  "type": "uint256"
                },
                {
                  "internalType": "uint256",
                  "name": "bCreditScore",
                  "type": "uint256"
                },
                {
                  "internalType": "bool",
                  "name": "isPrivate",
                  "type": "bool"
                }
              ],
              "internalType": "struct P2PLoans.LoanDetails",
              "name": "LD",
              "type": "tuple"
            },
            {
              "internalType": "uint256",
              "name": "minLoanAmount",
              "type": "uint256"
            },
            {
              "internalType": "uint256",
              "name": "maxLoanAmount",
              "type": "uint256"
            }
          ],
          "indexed": false,
          "internalType": "struct P2PLoans.OfferLoanDetails",
          "name": "OLD",
          "type": "tuple"
        }
      ],
      "name": "CreatedLoanOffer",
      "type": "event"
    },
    {
      "anonymous": false,
      "inputs": [
        {
          "indexed": false,
          "internalType": "address",
          "name": "borrower",
          "type": "address"
        },
        {
          "components": [
            {
              "internalType": "string",
              "name": "loanId",
              "type": "string"
            },
            {
              "internalType": "contract IERC20",
              "name": "token",
              "type": "address"
            },
            {
              "internalType": "address payable",
              "name": "initiator",
              "type": "address"
            },
            {
              "internalType": "uint256",
              "name": "principal",
              "type": "uint256"
            },
            {
              "internalType": "uint256",
              "name": "interest",
              "type": "uint256"
            },
            {
              "internalType": "uint256",
              "name": "minDuration",
              "type": "uint256"
            },
            {
              "internalType": "uint256",
              "name": "maxDuration",
              "type": "uint256"
            },
            {
              "internalType": "uint256",
              "name": "bCreditScore",
              "type": "uint256"
            },
            {
              "internalType": "bool",
              "name": "isPrivate",
              "type": "bool"
            }
          ],
          "indexed": false,
          "internalType": "struct P2PLoans.LoanDetails",
          "name": "LD",
          "type": "tuple"
        }
      ],
      "name": "CreatedLoanRequest",
      "type": "event"
    },
    {
      "anonymous": false,
      "inputs": [
        {
          "indexed": false,
          "internalType": "address",
          "name": "initiator",
          "type": "address"
        },
        {
          "components": [
            {
              "components": [
                {
                  "internalType": "string",
                  "name": "loanId",
                  "type": "string"
                },
                {
                  "internalType": "contract IERC20",
                  "name": "token",
                  "type": "address"
                },
                {
                  "internalType": "address payable",
                  "name": "initiator",
                  "type": "address"
                },
                {
                  "internalType": "uint256",
                  "name": "principal",
                  "type": "uint256"
                },
                {
                  "internalType": "uint256",
                  "name": "interest",
                  "type": "uint256"
                },
                {
                  "internalType": "uint256",
                  "name": "minDuration",
                  "type": "uint256"
                },
                {
                  "internalType": "uint256",
                  "name": "maxDuration",
                  "type": "uint256"
                },
                {
                  "internalType": "uint256",
                  "name": "bCreditScore",
                  "type": "uint256"
                },
                {
                  "internalType": "bool",
                  "name": "isPrivate",
                  "type": "bool"
                }
              ],
              "internalType": "struct P2PLoans.LoanDetails",
              "name": "LD",
              "type": "tuple"
            },
            {
              "components": [
                {
                  "internalType": "address payable",
                  "name": "borrower",
                  "type": "address"
                },
                {
                  "internalType": "address payable",
                  "name": "lender",
                  "type": "address"
                }
              ],
              "internalType": "struct P2PLoans.LoanParticipants",
              "name": "LP",
              "type": "tuple"
            },
            {
              "internalType": "enum P2PLoans.LoanState",
              "name": "LS",
              "type": "uint8"
            },
            {
              "internalType": "uint256",
              "name": "currentBalance",
              "type": "uint256"
            },
            {
              "internalType": "uint256",
              "name": "deadline",
              "type": "uint256"
            }
          ],
          "indexed": false,
          "internalType": "struct P2PLoans.P2PLoanDetails",
          "name": "P2PLD",
          "type": "tuple"
        }
      ],
      "name": "CreatedP2PLoan",
      "type": "event"
    },
    {
      "anonymous": false,
      "inputs": [
        {
          "indexed": false,
          "internalType": "address",
          "name": "funder",
          "type": "address"
        },
        {
          "indexed": false,
          "internalType": "string",
          "name": "loanId",
          "type": "string"
        },
        {
          "indexed": false,
          "internalType": "uint256",
          "name": "amount",
          "type": "uint256"
        }
      ],
      "name": "FundedP2PLoan",
      "type": "event"
    },
    {
      "anonymous": false,
      "inputs": [
        {
          "indexed": false,
          "internalType": "address",
          "name": "repayer",
          "type": "address"
        },
        {
          "indexed": false,
          "internalType": "string",
          "name": "loanId",
          "type": "string"
        },
        {
          "indexed": false,
          "internalType": "uint256",
          "name": "amount",
          "type": "uint256"
        }
      ],
      "name": "RepaidP2PLoan",
      "type": "event"
    },
    {
      "inputs": [
        {
          "internalType": "string",
          "name": "_offerId",
          "type": "string"
        },
        {
          "internalType": "string",
          "name": "_loanId",
          "type": "string"
        },
        {
          "internalType": "uint256",
          "name": "_amount",
          "type": "uint256"
        },
        {
          "internalType": "uint256",
          "name": "_duration",
          "type": "uint256"
        }
      ],
      "name": "borrowFromOffer",
      "outputs": [],
      "stateMutability": "nonpayable",
      "type": "function"
    },
    {
      "inputs": [
        {
          "components": [
            {
              "components": [
                {
                  "internalType": "string",
                  "name": "loanId",
                  "type": "string"
                },
                {
                  "internalType": "contract IERC20",
                  "name": "token",
                  "type": "address"
                },
                {
                  "internalType": "address payable",
                  "name": "initiator",
                  "type": "address"
                },
                {
                  "internalType": "uint256",
                  "name": "principal",
                  "type": "uint256"
                },
                {
                  "internalType": "uint256",
                  "name": "interest",
                  "type": "uint256"
                },
                {
                  "internalType": "uint256",
                  "name": "minDuration",
                  "type": "uint256"
                },
                {
                  "internalType": "uint256",
                  "name": "maxDuration",
                  "type": "uint256"
                },
                {
                  "internalType": "uint256",
                  "name": "bCreditScore",
                  "type": "uint256"
                },
                {
                  "internalType": "bool",
                  "name": "isPrivate",
                  "type": "bool"
                }
              ],
              "internalType": "struct P2PLoans.LoanDetails",
              "name": "LD",
              "type": "tuple"
            },
            {
              "internalType": "uint256",
              "name": "minLoanAmount",
              "type": "uint256"
            },
            {
              "internalType": "uint256",
              "name": "maxLoanAmount",
              "type": "uint256"
            }
          ],
          "internalType": "struct P2PLoans.OfferLoanDetails",
          "name": "OLD",
          "type": "tuple"
        }
      ],
      "name": "createLoanOffer",
      "outputs": [],
      "stateMutability": "nonpayable",
      "type": "function"
    },
    {
      "inputs": [
        {
          "components": [
            {
              "internalType": "string",
              "name": "loanId",
              "type": "string"
            },
            {
              "internalType": "contract IERC20",
              "name": "token",
              "type": "address"
            },
            {
              "internalType": "address payable",
              "name": "initiator",
              "type": "address"
            },
            {
              "internalType": "uint256",
              "name": "principal",
              "type": "uint256"
            },
            {
              "internalType": "uint256",
              "name": "interest",
              "type": "uint256"
            },
            {
              "internalType": "uint256",
              "name": "minDuration",
              "type": "uint256"
            },
            {
              "internalType": "uint256",
              "name": "maxDuration",
              "type": "uint256"
            },
            {
              "internalType": "uint256",
              "name": "bCreditScore",
              "type": "uint256"
            },
            {
              "internalType": "bool",
              "name": "isPrivate",
              "type": "bool"
            }
          ],
          "internalType": "struct P2PLoans.LoanDetails",
          "name": "LD",
          "type": "tuple"
        }
      ],
      "name": "createLoanRequest",
      "outputs": [],
      "stateMutability": "nonpayable",
      "type": "function"
    },
    {
      "inputs": [
        {
          "internalType": "string",
          "name": "_loanId",
          "type": "string"
        }
      ],
      "name": "fundLoanRequest",
      "outputs": [],
      "stateMutability": "payable",
      "type": "function"
    },
    {
      "inputs": [
        {
          "internalType": "string",
          "name": "_loanId",
          "type": "string"
        }
      ],
      "name": "fundPendingLoan",
      "outputs": [],
      "stateMutability": "nonpayable",
      "type": "function"
    },
    {
      "inputs": [],
      "name": "getAllP2PLoans",
      "outputs": [
        {
          "components": [
            {
              "components": [
                {
                  "internalType": "string",
                  "name": "loanId",
                  "type": "string"
                },
                {
                  "internalType": "contract IERC20",
                  "name": "token",
                  "type": "address"
                },
                {
                  "internalType": "address payable",
                  "name": "initiator",
                  "type": "address"
                },
                {
                  "internalType": "uint256",
                  "name": "principal",
                  "type": "uint256"
                },
                {
                  "internalType": "uint256",
                  "name": "interest",
                  "type": "uint256"
                },
                {
                  "internalType": "uint256",
                  "name": "minDuration",
                  "type": "uint256"
                },
                {
                  "internalType": "uint256",
                  "name": "maxDuration",
                  "type": "uint256"
                },
                {
                  "internalType": "uint256",
                  "name": "bCreditScore",
                  "type": "uint256"
                },
                {
                  "internalType": "bool",
                  "name": "isPrivate",
                  "type": "bool"
                }
              ],
              "internalType": "struct P2PLoans.LoanDetails",
              "name": "LD",
              "type": "tuple"
            },
            {
              "components": [
                {
                  "internalType": "address payable",
                  "name": "borrower",
                  "type": "address"
                },
                {
                  "internalType": "address payable",
                  "name": "lender",
                  "type": "address"
                }
              ],
              "internalType": "struct P2PLoans.LoanParticipants",
              "name": "LP",
              "type": "tuple"
            },
            {
              "internalType": "enum P2PLoans.LoanState",
              "name": "LS",
              "type": "uint8"
            },
            {
              "internalType": "uint256",
              "name": "currentBalance",
              "type": "uint256"
            },
            {
              "internalType": "uint256",
              "name": "deadline",
              "type": "uint256"
            }
          ],
          "internalType": "struct P2PLoans.P2PLoanDetails[]",
          "name": "",
          "type": "tuple[]"
        }
      ],
      "stateMutability": "view",
      "type": "function"
    },
    {
      "inputs": [],
      "name": "getAvailableOffers",
      "outputs": [
        {
          "components": [
            {
              "components": [
                {
                  "internalType": "string",
                  "name": "loanId",
                  "type": "string"
                },
                {
                  "internalType": "contract IERC20",
                  "name": "token",
                  "type": "address"
                },
                {
                  "internalType": "address payable",
                  "name": "initiator",
                  "type": "address"
                },
                {
                  "internalType": "uint256",
                  "name": "principal",
                  "type": "uint256"
                },
                {
                  "internalType": "uint256",
                  "name": "interest",
                  "type": "uint256"
                },
                {
                  "internalType": "uint256",
                  "name": "minDuration",
                  "type": "uint256"
                },
                {
                  "internalType": "uint256",
                  "name": "maxDuration",
                  "type": "uint256"
                },
                {
                  "internalType": "uint256",
                  "name": "bCreditScore",
                  "type": "uint256"
                },
                {
                  "internalType": "bool",
                  "name": "isPrivate",
                  "type": "bool"
                }
              ],
              "internalType": "struct P2PLoans.LoanDetails",
              "name": "LD",
              "type": "tuple"
            },
            {
              "internalType": "uint256",
              "name": "minLoanAmount",
              "type": "uint256"
            },
            {
              "internalType": "uint256",
              "name": "maxLoanAmount",
              "type": "uint256"
            }
          ],
          "internalType": "struct P2PLoans.OfferLoanDetails[]",
          "name": "",
          "type": "tuple[]"
        }
      ],
      "stateMutability": "view",
      "type": "function"
    },
    {
      "inputs": [],
      "name": "getAvailableRequests",
      "outputs": [
        {
          "components": [
            {
              "internalType": "string",
              "name": "loanId",
              "type": "string"
            },
            {
              "internalType": "contract IERC20",
              "name": "token",
              "type": "address"
            },
            {
              "internalType": "address payable",
              "name": "initiator",
              "type": "address"
            },
            {
              "internalType": "uint256",
              "name": "principal",
              "type": "uint256"
            },
            {
              "internalType": "uint256",
              "name": "interest",
              "type": "uint256"
            },
            {
              "internalType": "uint256",
              "name": "minDuration",
              "type": "uint256"
            },
            {
              "internalType": "uint256",
              "name": "maxDuration",
              "type": "uint256"
            },
            {
              "internalType": "uint256",
              "name": "bCreditScore",
              "type": "uint256"
            },
            {
              "internalType": "bool",
              "name": "isPrivate",
              "type": "bool"
            }
          ],
          "internalType": "struct P2PLoans.LoanDetails[]",
          "name": "",
          "type": "tuple[]"
        }
      ],
      "stateMutability": "view",
      "type": "function"
    },
    {
      "inputs": [
        {
          "internalType": "string",
          "name": "_loanId",
          "type": "string"
        }
      ],
      "name": "getOfferById",
      "outputs": [
        {
          "components": [
            {
              "components": [
                {
                  "internalType": "string",
                  "name": "loanId",
                  "type": "string"
                },
                {
                  "internalType": "contract IERC20",
                  "name": "token",
                  "type": "address"
                },
                {
                  "internalType": "address payable",
                  "name": "initiator",
                  "type": "address"
                },
                {
                  "internalType": "uint256",
                  "name": "principal",
                  "type": "uint256"
                },
                {
                  "internalType": "uint256",
                  "name": "interest",
                  "type": "uint256"
                },
                {
                  "internalType": "uint256",
                  "name": "minDuration",
                  "type": "uint256"
                },
                {
                  "internalType": "uint256",
                  "name": "maxDuration",
                  "type": "uint256"
                },
                {
                  "internalType": "uint256",
                  "name": "bCreditScore",
                  "type": "uint256"
                },
                {
                  "internalType": "bool",
                  "name": "isPrivate",
                  "type": "bool"
                }
              ],
              "internalType": "struct P2PLoans.LoanDetails",
              "name": "LD",
              "type": "tuple"
            },
            {
              "internalType": "uint256",
              "name": "minLoanAmount",
              "type": "uint256"
            },
            {
              "internalType": "uint256",
              "name": "maxLoanAmount",
              "type": "uint256"
            }
          ],
          "internalType": "struct P2PLoans.OfferLoanDetails",
          "name": "",
          "type": "tuple"
        }
      ],
      "stateMutability": "view",
      "type": "function"
    },
    {
      "inputs": [
        {
          "internalType": "address",
          "name": "_owner",
          "type": "address"
        }
      ],
      "name": "getOffersByOwner",
      "outputs": [
        {
          "components": [
            {
              "components": [
                {
                  "internalType": "string",
                  "name": "loanId",
                  "type": "string"
                },
                {
                  "internalType": "contract IERC20",
                  "name": "token",
                  "type": "address"
                },
                {
                  "internalType": "address payable",
                  "name": "initiator",
                  "type": "address"
                },
                {
                  "internalType": "uint256",
                  "name": "principal",
                  "type": "uint256"
                },
                {
                  "internalType": "uint256",
                  "name": "interest",
                  "type": "uint256"
                },
                {
                  "internalType": "uint256",
                  "name": "minDuration",
                  "type": "uint256"
                },
                {
                  "internalType": "uint256",
                  "name": "maxDuration",
                  "type": "uint256"
                },
                {
                  "internalType": "uint256",
                  "name": "bCreditScore",
                  "type": "uint256"
                },
                {
                  "internalType": "bool",
                  "name": "isPrivate",
                  "type": "bool"
                }
              ],
              "internalType": "struct P2PLoans.LoanDetails",
              "name": "LD",
              "type": "tuple"
            },
            {
              "internalType": "uint256",
              "name": "minLoanAmount",
              "type": "uint256"
            },
            {
              "internalType": "uint256",
              "name": "maxLoanAmount",
              "type": "uint256"
            }
          ],
          "internalType": "struct P2PLoans.OfferLoanDetails[]",
          "name": "",
          "type": "tuple[]"
        }
      ],
      "stateMutability": "view",
      "type": "function"
    },
    {
      "inputs": [
        {
          "internalType": "string",
          "name": "_loanId",
          "type": "string"
        }
      ],
      "name": "getP2PLoanById",
      "outputs": [
        {
          "components": [
            {
              "components": [
                {
                  "internalType": "string",
                  "name": "loanId",
                  "type": "string"
                },
                {
                  "internalType": "contract IERC20",
                  "name": "token",
                  "type": "address"
                },
                {
                  "internalType": "address payable",
                  "name": "initiator",
                  "type": "address"
                },
                {
                  "internalType": "uint256",
                  "name": "principal",
                  "type": "uint256"
                },
                {
                  "internalType": "uint256",
                  "name": "interest",
                  "type": "uint256"
                },
                {
                  "internalType": "uint256",
                  "name": "minDuration",
                  "type": "uint256"
                },
                {
                  "internalType": "uint256",
                  "name": "maxDuration",
                  "type": "uint256"
                },
                {
                  "internalType": "uint256",
                  "name": "bCreditScore",
                  "type": "uint256"
                },
                {
                  "internalType": "bool",
                  "name": "isPrivate",
                  "type": "bool"
                }
              ],
              "internalType": "struct P2PLoans.LoanDetails",
              "name": "LD",
              "type": "tuple"
            },
            {
              "components": [
                {
                  "internalType": "address payable",
                  "name": "borrower",
                  "type": "address"
                },
                {
                  "internalType": "address payable",
                  "name": "lender",
                  "type": "address"
                }
              ],
              "internalType": "struct P2PLoans.LoanParticipants",
              "name": "LP",
              "type": "tuple"
            },
            {
              "internalType": "enum P2PLoans.LoanState",
              "name": "LS",
              "type": "uint8"
            },
            {
              "internalType": "uint256",
              "name": "currentBalance",
              "type": "uint256"
            },
            {
              "internalType": "uint256",
              "name": "deadline",
              "type": "uint256"
            }
          ],
          "internalType": "struct P2PLoans.P2PLoanDetails",
          "name": "",
          "type": "tuple"
        }
      ],
      "stateMutability": "view",
      "type": "function"
    },
    {
      "inputs": [
        {
          "internalType": "address",
          "name": "_owner",
          "type": "address"
        }
      ],
      "name": "getP2PLoansByOwner",
      "outputs": [
        {
          "components": [
            {
              "components": [
                {
                  "internalType": "string",
                  "name": "loanId",
                  "type": "string"
                },
                {
                  "internalType": "contract IERC20",
                  "name": "token",
                  "type": "address"
                },
                {
                  "internalType": "address payable",
                  "name": "initiator",
                  "type": "address"
                },
                {
                  "internalType": "uint256",
                  "name": "principal",
                  "type": "uint256"
                },
                {
                  "internalType": "uint256",
                  "name": "interest",
                  "type": "uint256"
                },
                {
                  "internalType": "uint256",
                  "name": "minDuration",
                  "type": "uint256"
                },
                {
                  "internalType": "uint256",
                  "name": "maxDuration",
                  "type": "uint256"
                },
                {
                  "internalType": "uint256",
                  "name": "bCreditScore",
                  "type": "uint256"
                },
                {
                  "internalType": "bool",
                  "name": "isPrivate",
                  "type": "bool"
                }
              ],
              "internalType": "struct P2PLoans.LoanDetails",
              "name": "LD",
              "type": "tuple"
            },
            {
              "components": [
                {
                  "internalType": "address payable",
                  "name": "borrower",
                  "type": "address"
                },
                {
                  "internalType": "address payable",
                  "name": "lender",
                  "type": "address"
                }
              ],
              "internalType": "struct P2PLoans.LoanParticipants",
              "name": "LP",
              "type": "tuple"
            },
            {
              "internalType": "enum P2PLoans.LoanState",
              "name": "LS",
              "type": "uint8"
            },
            {
              "internalType": "uint256",
              "name": "currentBalance",
              "type": "uint256"
            },
            {
              "internalType": "uint256",
              "name": "deadline",
              "type": "uint256"
            }
          ],
          "internalType": "struct P2PLoans.P2PLoanDetails[]",
          "name": "",
          "type": "tuple[]"
        }
      ],
      "stateMutability": "view",
      "type": "function"
    },
    {
      "inputs": [
        {
          "internalType": "string",
          "name": "_loanId",
          "type": "string"
        }
      ],
      "name": "getRequestById",
      "outputs": [
        {
          "components": [
            {
              "internalType": "string",
              "name": "loanId",
              "type": "string"
            },
            {
              "internalType": "contract IERC20",
              "name": "token",
              "type": "address"
            },
            {
              "internalType": "address payable",
              "name": "initiator",
              "type": "address"
            },
            {
              "internalType": "uint256",
              "name": "principal",
              "type": "uint256"
            },
            {
              "internalType": "uint256",
              "name": "interest",
              "type": "uint256"
            },
            {
              "internalType": "uint256",
              "name": "minDuration",
              "type": "uint256"
            },
            {
              "internalType": "uint256",
              "name": "maxDuration",
              "type": "uint256"
            },
            {
              "internalType": "uint256",
              "name": "bCreditScore",
              "type": "uint256"
            },
            {
              "internalType": "bool",
              "name": "isPrivate",
              "type": "bool"
            }
          ],
          "internalType": "struct P2PLoans.LoanDetails",
          "name": "",
          "type": "tuple"
        }
      ],
      "stateMutability": "view",
      "type": "function"
    },
    {
      "inputs": [
        {
          "internalType": "address",
          "name": "_owner",
          "type": "address"
        }
      ],
      "name": "getRequestsByOwner",
      "outputs": [
        {
          "components": [
            {
              "internalType": "string",
              "name": "loanId",
              "type": "string"
            },
            {
              "internalType": "contract IERC20",
              "name": "token",
              "type": "address"
            },
            {
              "internalType": "address payable",
              "name": "initiator",
              "type": "address"
            },
            {
              "internalType": "uint256",
              "name": "principal",
              "type": "uint256"
            },
            {
              "internalType": "uint256",
              "name": "interest",
              "type": "uint256"
            },
            {
              "internalType": "uint256",
              "name": "minDuration",
              "type": "uint256"
            },
            {
              "internalType": "uint256",
              "name": "maxDuration",
              "type": "uint256"
            },
            {
              "internalType": "uint256",
              "name": "bCreditScore",
              "type": "uint256"
            },
            {
              "internalType": "bool",
              "name": "isPrivate",
              "type": "bool"
            }
          ],
          "internalType": "struct P2PLoans.LoanDetails[]",
          "name": "",
          "type": "tuple[]"
        }
      ],
      "stateMutability": "view",
      "type": "function"
    },
    {
      "inputs": [
        {
          "internalType": "string",
          "name": "_loanId",
          "type": "string"
        },
        {
          "internalType": "uint256",
          "name": "_amount",
          "type": "uint256"
        }
      ],
      "name": "repayLoan",
      "outputs": [],
      "stateMutability": "payable",
      "type": "function"
    }
  ],
  "transactionHash": "0x3e434ceb97714dee50114f546da93f5c791ddd547d1b5d31668ba8ea8503dd17",
  "args": [],
  "numDeployments": 1,
  "solcInputHash": "eefa3ecd5e712cc7f0d2ab8d5810e944",
  "bytecode": "0x608060405234801561001057600080fd5b506158c080620000216000396000f3fe6080604052600436106100e85760003560e01c8063953d8fb31161008a578063d72441b311610059578063d72441b31461026b578063de68dbd41461028b578063dffc8b061461029e578063faa0791c146102cb57600080fd5b8063953d8fb3146101eb578063b603a1bc146101fe578063b6ede2001461021e578063c697fa741461024b57600080fd5b806358e3ab68116100c657806358e3ab681461016757806364be6c27146101945780636ba6ea03146101b657806390a7da49146101cb57600080fd5b80631047955d146100ed57806331a5abd9146101185780633e64108414610145575b600080fd5b3480156100f957600080fd5b506101026102eb565b60405161010f9190614d6c565b60405180910390f35b34801561012457600080fd5b50610138610133366004614e9b565b6104bf565b60405161010f9190614f0d565b34801561015157600080fd5b50610165610160366004614e9b565b61064e565b005b34801561017357600080fd5b50610187610182366004614f35565b610de9565b60405161010f9190614f59565b3480156101a057600080fd5b506101a9610f7f565b60405161010f9190614fae565b3480156101c257600080fd5b506101876110d2565b3480156101d757600080fd5b506101656101e63660046150db565b611249565b6101656101f9366004614e9b565b6116ef565b34801561020a57600080fd5b50610102610219366004614f35565b611abf565b34801561022a57600080fd5b5061023e610239366004614e9b565b611c9e565b60405161010f9190615175565b34801561025757600080fd5b506101a9610266366004614f35565b611e68565b34801561027757600080fd5b50610165610286366004615188565b611fcf565b6101656102993660046151bd565b61234e565b3480156102aa57600080fd5b506102be6102b9366004614e9b565b612aad565b60405161010f9190615202565b3480156102d757600080fd5b506101656102e6366004615215565b612bf1565b60606000805480602002602001604051908101604052809291908181526020016000905b828210156104b657600084815260209020604080516101c08101909152600e84029091018054829060a082019083908290829061034b90615289565b80601f016020809104026020016040519081016040528092919081815260200182805461037790615289565b80156103c45780601f10610399576101008083540402835291602001916103c4565b820191906000526020600020905b8154815290600101906020018083116103a757829003601f168201915b505050918352505060018201546001600160a01b0390811660208084019190915260028401548216604080850191909152600380860154606086015260048601546080860152600586015460a0860152600686015460c0860152600786015460e086015260089095015460ff90811615156101009095019490945294865284518086018652600988015483168152600a88015490921682820152850152600b85015493909201929091169081111561047e5761047e614cc9565b600381111561048f5761048f614cc9565b8152602001600c8201548152602001600d820154815250508152602001906001019061030f565b50505050905090565b6104c7614abb565b60046104f460016005856040516104de91906152c3565b9081526040519081900360200190205490613050565b81548110610504576105046152df565b90600052602060002090600b0201604051806060016040529081600082016040518061012001604052908160008201805461053e90615289565b80601f016020809104026020016040519081016040528092919081815260200182805461056a90615289565b80156105b75780601f1061058c576101008083540402835291602001916105b7565b820191906000526020600020905b81548152906001019060200180831161059a57829003601f168201915b505050918352505060018201546001600160a01b0390811660208084019190915260028401549091166040808401919091526003840154606084015260048401546080840152600584015460a0840152600684015460c0840152600784015460e084015260089093015460ff16151561010090920191909152918352600984015491830191909152600a9092015491015292915050565b60018160405161065e91906152c3565b9081526020016040518091039020546000036106a95760405162461bcd60e51b815260206004820152600560248201526410a637b0b760d91b60448201526064015b60405180910390fd5b336001600160a01b031660006106c9600180856040516104de91906152c3565b815481106106d9576106d96152df565b60009182526020909120600a600e9092020101546001600160a01b03161461072d5760405162461bcd60e51b815260206004820152600760248201526610a632b73232b960c91b60448201526064016106a0565b600080610744600180856040516104de91906152c3565b81548110610754576107546152df565b60009182526020909120600b600e90920201015460ff16600381111561077c5761077c614cc9565b146107b45760405162461bcd60e51b81526020600482015260086024820152672150656e64696e6760c01b60448201526064016106a0565b6107eb604051806040016040528060158152602001743e3e205965732c2074686973206c6f616e3a20257360581b81525082613065565b6000610801600180846040516104de91906152c3565b81548110610811576108116152df565b6000918252602082206001600e909202018101546040516001600160a01b03909116926323b872dd92339261084e919081906104de9089906152c3565b8154811061085e5761085e6152df565b6000918252602082206009600e9092020101546040516001600160a01b0390911691906108959060019081906104de908a906152c3565b815481106108a5576108a56152df565b600091825260209091206003600e9092020101546040516001600160e01b031960e086901b1681526001600160a01b03938416600482015292909116602483015260448201526064016020604051808303816000875af115801561090d573d6000803e3d6000fd5b505050506040513d601f19601f8201168201806040525081019061093191906152f5565b61094d5760405162461bcd60e51b81526004016106a090615312565b6109d16000610966600180856040516104de91906152c3565b81548110610976576109766152df565b90600052602060002090600e02016000016003015460006109a1600180866040516104de91906152c3565b815481106109b1576109b16152df565b90600052602060002090600e0201600c01546130ae90919063ffffffff16565b60006109e7600180856040516104de91906152c3565b815481106109f7576109f76152df565b90600052602060002090600e0201600c018190555060016000610a24600180856040516104de91906152c3565b81548110610a3457610a346152df565b60009182526020909120600b600e9092020101805460ff19166001836003811115610a6157610a61614cc9565b02179055506000610a7c600180846040516104de91906152c3565b81548110610a8c57610a8c6152df565b90600052602060002090600e0201600001600301546002600080610aba600180876040516104de91906152c3565b81548110610aca57610aca6152df565b90600052602060002090600e020160090160000160009054906101000a90046001600160a01b03166001600160a01b03166001600160a01b03168152602001908152602001600020610b7d60016003600080610b306001808a6040516104de91906152c3565b81548110610b4057610b406152df565b600091825260208083206009600e9093020191909101546001600160a01b03168352820192909252604090810190912090516104de9087906152c3565b81548110610b8d57610b8d6152df565b90600052602060002090600e0201600c018190555060016002600080610bbd600180876040516104de91906152c3565b81548110610bcd57610bcd6152df565b90600052602060002090600e020160090160000160009054906101000a90046001600160a01b03166001600160a01b03166001600160a01b03168152602001908152602001600020610c3360016003600080610b306001808a6040516104de91906152c3565b81548110610c4357610c436152df565b60009182526020909120600b600e9092020101805460ff19166001836003811115610c7057610c70614cc9565b02179055506000610c8b600180846040516104de91906152c3565b81548110610c9b57610c9b6152df565b600091825260208083206003600e9093020182015433845260028252604080852093909252928190209051610cd8916001916104de9087906152c3565b81548110610ce857610ce86152df565b60009182526020808320600c600e909302019190910192909255338152600282526040808220600390935290819020905160019291610d2f918491906104de9087906152c3565b81548110610d3f57610d3f6152df565b60009182526020909120600b600e9092020101805460ff19166001836003811115610d6c57610d6c614cc9565b02179055507ffe56aff5974e20c5b77b1542529a3491c79a432ba916663a4612275e7bff17c633826000610daa600180876040516104de91906152c3565b81548110610dba57610dba6152df565b90600052602060002090600e020160000160030154604051610dde93929190615335565b60405180910390a150565b6001600160a01b0381166000908152600660209081526040808320805482518185028101850190935280835260609492939192909184015b82821015610f7457600084815260209020604080516101808101909152600b8402909101805482906060820190839082908290610e5d90615289565b80601f0160208091040260200160405190810160405280929190818152602001828054610e8990615289565b8015610ed65780601f10610eab57610100808354040283529160200191610ed6565b820191906000526020600020905b815481529060010190602001808311610eb957829003601f168201915b50505091835250506001828101546001600160a01b0390811660208085019190915260028501549091166040808501919091526003850154606085015260048501546080850152600585015460a0850152600685015460c0850152600785015460e085015260089094015460ff16151561010090930192909252928452600985015484820152600a9094015492019190915291835292019101610e21565b505050509050919050565b60606008805480602002602001604051908101604052809291908181526020016000905b828210156104b6578382906000526020600020906009020160405180610120016040529081600082018054610fd790615289565b80601f016020809104026020016040519081016040528092919081815260200182805461100390615289565b80156110505780601f1061102557610100808354040283529160200191611050565b820191906000526020600020905b81548152906001019060200180831161103357829003601f168201915b50505091835250506001828101546001600160a01b03908116602080850191909152600285015490911660408401526003840154606084015260048401546080840152600584015460a0840152600684015460c0840152600784015460e084015260089093015460ff1615156101009092019190915291835292019101610fa3565b60606004805480602002602001604051908101604052809291908181526020016000905b828210156104b657600084815260209020604080516101808101909152600b840290910180548290606082019083908290829061113290615289565b80601f016020809104026020016040519081016040528092919081815260200182805461115e90615289565b80156111ab5780601f10611180576101008083540402835291602001916111ab565b820191906000526020600020905b81548152906001019060200180831161118e57829003601f168201915b50505091835250506001828101546001600160a01b0390811660208085019190915260028501549091166040808501919091526003850154606085015260048501546080850152600585015460a0850152600685015460c0850152600785015460e085015260089094015460ff16151561010090930192909252928452600985015484820152600a90940154920191909152918352920191016110f6565b8051604001516001600160a01b031633146112965760405162461bcd60e51b815260206004820152600d60248201526c26bab9ba1031329037bbb732b960991b60448201526064016106a0565b8051606001516112e85760405162461bcd60e51b815260206004820181905260248201527f5072696e636970616c206d7573742062652067726561746572207468616e203060448201526064016106a0565b80516080015161133a5760405162461bcd60e51b815260206004820152601f60248201527f496e746572657374206d7573742062652067726561746572207468616e20300060448201526064016106a0565b805160a00151158015906113525750805160c0015115155b61139e5760405162461bcd60e51b815260206004820152601f60248201527f4475726174696f6e206d7573742062652067726561746572207468616e20300060448201526064016106a0565b600081602001511180156113b6575060008160400151115b61140d5760405162461bcd60e51b815260206004820152602260248201527f4c6f616e20616d6f756e74206d7573742062652067726561746572207468616e604482015261020360f41b60648201526084016106a0565b805160c081015160a090910151111561148e5760405162461bcd60e51b815260206004820152603760248201527f4d696e206475726174696f6e206d757374206265206c657373207468616e206f60448201527f7220657175616c20746f206d6178206475726174696f6e00000000000000000060648201526084016106a0565b60048054600181018255600091909152815180518392600b027f8a35acfbc15ff81a39ae7d344fd709f28e8600b4aa8c65c6b64bfe7fe36bd19b019190829081906114d990826153af565b50602082810151600183810180546001600160a01b03199081166001600160a01b03948516179091556040808701516002870180549093169416939093179055606085015160038501556080850151600485015560a0850151600585015560c085015160068086019190915560e08601516007860155610100909501516008909401805460ff19169415159490941790935585820151600986015594850151600a9094019390935533600090815291835292812080549384018155815220825180518493600b0290920191829081906115b290826153af565b506020828101516001830180546001600160a01b03199081166001600160a01b03938416179091556040808601516002860180549093169316929092179055606084015160038401556080840151600484015560a0840151600584015560c084015160068085019190915560e0850151600780860191909155610100909501516008909401805460ff19169415159490941790935585820151600986015594850151600a9094019390935533600090815290835283812054919092529082902083515192519192909161168591906152c3565b9081526040519081900360200181209190915560045482515190916005916116ac916152c3565b9081526020016040518091039020819055507f9a98af2616320efa52bb8864474adc49b95551976651330d83f9fad0586fd7903382604051610dde92919061546f565b6009816040516116ff91906152c3565b9081526020016040518091039020546000036117485760405162461bcd60e51b81526020600482015260086024820152670854995c5d595cdd60c21b60448201526064016106a0565b6000600861176160016009856040516104de91906152c3565b81548110611771576117716152df565b90600052602060002090600902016040518061012001604052908160008201805461179b90615289565b80601f01602080910402602001604051908101604052809291908181526020018280546117c790615289565b80156118145780601f106117e957610100808354040283529160200191611814565b820191906000526020600020905b8154815290600101906020018083116117f757829003601f168201915b505050918352505060018201546001600160a01b039081166020830152600283015481166040808401919091526003840154606084015260048401546080840152600584015460a0840152600684015460c0840152600784015460e084015260089093015460ff1615156101009092019190915290820151919250339116036118af5760405162461bcd60e51b81526004016106a090615493565b606081015160208201516040516370a0823160e01b81523360048201526001600160a01b03909116906370a0823190602401602060405180830381865afa1580156118fe573d6000803e3d6000fd5b505050506040513d601f19601f8201168201806040525081019061192291906154b2565b101561195b5760405162461bcd60e51b81526020600482015260086024820152673c42616c616e636560c01b60448201526064016106a0565b6020810151604080830151606084015191516323b872dd60e01b81523360048201526001600160a01b0391821660248201526044810192909252909116906323b872dd906064016020604051808303816000875af11580156119c1573d6000803e3d6000fd5b505050506040513d601f19601f820116820180604052508101906119e591906152f5565b611a015760405162461bcd60e51b81526004016106a090615312565b611a10816040015133846130ba565b7fc5e22134575a9af1affc16397b8be736221df5beacc34e2e4cd946319f8b2ea3336000611a48600180876040516104de91906152c3565b81548110611a5857611a586152df565b90600052602060002090600e0201604051611a74929190615548565b60405180910390a17ffe56aff5974e20c5b77b1542529a3491c79a432ba916663a4612275e7bff17c633838360600151604051611ab393929190615335565b60405180910390a15050565b6001600160a01b0381166000908152600260209081526040808320805482518185028101850190935280835260609492939192909184015b82821015610f7457600084815260209020604080516101c08101909152600e84029091018054829060a0820190839082908290611b3390615289565b80601f0160208091040260200160405190810160405280929190818152602001828054611b5f90615289565b8015611bac5780601f10611b8157610100808354040283529160200191611bac565b820191906000526020600020905b815481529060010190602001808311611b8f57829003601f168201915b505050918352505060018201546001600160a01b0390811660208084019190915260028401548216604080850191909152600380860154606086015260048601546080860152600586015460a0860152600686015460c0860152600786015460e086015260089095015460ff90811615156101009095019490945294865284518086018652600988015483168152600a88015490921682820152850152600b850154939092019290911690811115611c6657611c66614cc9565b6003811115611c7757611c77614cc9565b8152602001600c8201548152602001600d8201548152505081526020019060010190611af7565b611ca6614ae2565b6000611cbc600180856040516104de91906152c3565b81548110611ccc57611ccc6152df565b90600052602060002090600e02016040518060a00160405290816000820160405180610120016040529081600082018054611d0690615289565b80601f0160208091040260200160405190810160405280929190818152602001828054611d3290615289565b8015611d7f5780601f10611d5457610100808354040283529160200191611d7f565b820191906000526020600020905b815481529060010190602001808311611d6257829003601f168201915b505050918352505060018201546001600160a01b0390811660208084019190915260028401548216604080850191909152600380860154606086015260048601546080860152600586015460a0860152600686015460c0860152600786015460e086015260089095015460ff90811615156101009095019490945294865284518086018652600988015483168152600a88015490921682820152850152600b850154939092019290911690811115611e3957611e39614cc9565b6003811115611e4a57611e4a614cc9565b8152600c8201546020820152600d9091015460409091015292915050565b6001600160a01b0381166000908152600a60209081526040808320805482518185028101850190935280835260609492939192909184015b82821015610f74578382906000526020600020906009020160405180610120016040529081600082018054611ed490615289565b80601f0160208091040260200160405190810160405280929190818152602001828054611f0090615289565b8015611f4d5780601f10611f2257610100808354040283529160200191611f4d565b820191906000526020600020905b815481529060010190602001808311611f3057829003601f168201915b50505091835250506001828101546001600160a01b03908116602080850191909152600285015490911660408401526003840154606084015260048401546080840152600584015460a0840152600684015460c0840152600784015460e084015260089093015460ff1615156101009092019190915291835292019101611ea0565b60408101516001600160a01b031633146120115760405162461bcd60e51b81526020600482015260036024820152624d424f60e81b60448201526064016106a0565b60008160600151116120535760405162461bcd60e51b815260206004820152600b60248201526a05072696e636970616c3c360ac1b60448201526064016106a0565b60008160800151116120945760405162461bcd60e51b815260206004820152600a6024820152690496e7465726573743c360b41b60448201526064016106a0565b60008160a001511180156120ac575060008160c00151115b6120e55760405162461bcd60e51b815260206004820152600a60248201526904475726174696f6e3c360b41b60448201526064016106a0565b8060c001518160a00151111561212b5760405162461bcd60e51b815260206004820152600b60248201526a135a5b91080f8813585e1160aa1b60448201526064016106a0565b60088054600181018255600091909152815182916009027ff3f7a9fe364faab93b216da50a3214154f22a0a2b415b23a84c8169e8b636ee30190819061217190826153af565b5060208201516001820180546001600160a01b03199081166001600160a01b03938416179091556040808501516002850180549093169316929092179055606083015160038301556080830151600483015560a0830151600583015560c0830151600683015560e08301516007830155610100909201516008918201805460ff19169115159190911790555482519151909160099161221091906152c3565b908152604080516020928190038301902092909255336000908152600a8252918220805460018101825590835291208251839260090290910190819061225690826153af565b506020828101516001830180546001600160a01b03199081166001600160a01b03938416179091556040808601516002860180549093169316929092179055606084015160038401556080840151600484015560a0840151600584015560c0840151600684015560e08401516007840155610100909301516008909201805460ff191692151592909217909155336000908152600a825282812054600b909252829020835192519192909161230b91906152c3565b9081526020016040518091039020819055507f80637cf5530df2e3549ecb2819c5bea5f215df37c058cba592de6af5603a9a5d3382604051610dde929190615637565b60018260405161235e91906152c3565b9081526020016040518091039020546000036123a45760405162461bcd60e51b815260206004820152600560248201526410a637b0b760d91b60448201526064016106a0565b600160006123bc600180866040516104de91906152c3565b815481106123cc576123cc6152df565b60009182526020909120600b600e90920201015460ff1660038111156123f4576123f4614cc9565b1461242b5760405162461bcd60e51b81526020600482015260076024820152662141637469766560c81b60448201526064016106a0565b336001600160a01b0316600061244b600180866040516104de91906152c3565b8154811061245b5761245b6152df565b600091825260209091206009600e9092020101546001600160a01b0316146124955760405162461bcd60e51b81526004016106a090615493565b6000806124ac600180866040516104de91906152c3565b815481106124bc576124bc6152df565b90600052602060002090600e0201600c0154116125065760405162461bcd60e51b81526020600482015260086024820152672142616c616e636560c01b60448201526064016106a0565b80600061251d600180866040516104de91906152c3565b8154811061252d5761252d6152df565b90600052602060002090600e0201600c015410156125775760405162461bcd60e51b81526020600482015260076024820152660f905b5bdd5b9d60ca1b60448201526064016106a0565b61266c604051806040016040528060158152602001743e3e205965732c2074686973206c6f616e3a20257360581b81525060006125be600180876040516104de91906152c3565b815481106125ce576125ce6152df565b60009182526020909120600e9091020180546125e990615289565b80601f016020809104026020016040519081016040528092919081815260200182805461261590615289565b80156126625780601f1061263757610100808354040283529160200191612662565b820191906000526020600020905b81548152906001019060200180831161264557829003601f168201915b5050505050613065565b6000612682600180856040516104de91906152c3565b81548110612692576126926152df565b6000918252602082206001600e909202018101546040516001600160a01b03909116926323b872dd9233926126cf919081906104de908a906152c3565b815481106126df576126df6152df565b60009182526020909120600e90910201600a015460405160e084901b6001600160e01b03191681526001600160a01b03928316600482015291166024820152604481018490526064016020604051808303816000875af1158015612747573d6000803e3d6000fd5b505050506040513d601f19601f8201168201806040525081019061276b91906152f5565b6127875760405162461bcd60e51b81526004016106a090615312565b6127d18160006127a1600180876040516104de91906152c3565b815481106127b1576127b16152df565b90600052602060002090600e0201600c015461305090919063ffffffff16565b60006127e7600180866040516104de91906152c3565b815481106127f7576127f76152df565b60009182526020808320600c600e909302019190910192909255338152600282526040808220600390935290819020905161284292849290916127a1916001916104de9089906152c3565b3360009081526002602090815260408083206003909252918290209151909161287491600191906104de9088906152c3565b81548110612884576128846152df565b90600052602060002090600e0201600c01819055506129798160026000806128b6600180896040516104de91906152c3565b815481106128c6576128c66152df565b90600052602060002090600e020160090160010160009054906101000a90046001600160a01b03166001600160a01b03166001600160a01b031681526020019081526020016000206127a16001600360008061292c6001808c6040516104de91906152c3565b8154811061293c5761293c6152df565b60009182526020808320600a600e9093020191909101546001600160a01b03168352820192909252604090810190912090516104de9089906152c3565b6002600080612992600180886040516104de91906152c3565b815481106129a2576129a26152df565b90600052602060002090600e020160090160010160009054906101000a90046001600160a01b03166001600160a01b03166001600160a01b03168152602001908152602001600020612a5560016003600080612a086001808b6040516104de91906152c3565b81548110612a1857612a186152df565b60009182526020808320600a600e9093020191909101546001600160a01b03168352820192909252604090810190912090516104de9088906152c3565b81548110612a6557612a656152df565b90600052602060002090600e0201600c01819055507f7a5904c346d421d3d3c7197d968a93fd6efa2f0e88296f25d15ea36de7bee8a6338383604051611ab393929190615335565b612ab5614b35565b6008612acc60016009856040516104de91906152c3565b81548110612adc57612adc6152df565b906000526020600020906009020160405180610120016040529081600082018054612b0690615289565b80601f0160208091040260200160405190810160405280929190818152602001828054612b3290615289565b8015612b7f5780601f10612b5457610100808354040283529160200191612b7f565b820191906000526020600020905b815481529060010190602001808311612b6257829003601f168201915b505050918352505060018201546001600160a01b03908116602083015260028301541660408201526003820154606082015260048201546080820152600582015460a0820152600682015460c0820152600782015460e082015260089091015460ff1615156101009091015292915050565b600584604051612c0191906152c3565b908152602001604051809103902054600003612c485760405162461bcd60e51b815260206004820152600660248201526510a7b33332b960d11b60448201526064016106a0565b60006004612c6160016005886040516104de91906152c3565b81548110612c7157612c716152df565b90600052602060002090600b02016040518060600160405290816000820160405180610120016040529081600082018054612cab90615289565b80601f0160208091040260200160405190810160405280929190818152602001828054612cd790615289565b8015612d245780601f10612cf957610100808354040283529160200191612d24565b820191906000526020600020905b815481529060010190602001808311612d0757829003601f168201915b505050918352505060018201546001600160a01b03908116602080840191909152600284015482166040808501919091526003850154606085015260048501546080850152600585015460a0850152600685015460c0850152600785015460e085015260089094015460ff16151561010090930192909252928452600985015490840152600a909301549183019190915282519091015191925033911603612dde5760405162461bcd60e51b81526004016106a090615493565b6004612df560016005886040516104de91906152c3565b81548110612e0557612e056152df565b90600052602060002090600b0201600901548310158015612e5e57506004612e3860016005886040516104de91906152c3565b81548110612e4857612e486152df565b90600052602060002090600b0201600a01548311155b612e945760405162461bcd60e51b815260206004820152600760248201526608505b5bdd5b9d60ca1b60448201526064016106a0565b6004612eab60016005886040516104de91906152c3565b81548110612ebb57612ebb6152df565b90600052602060002090600b0201600001600501548210158015612f1a57506004612ef160016005886040516104de91906152c3565b81548110612f0157612f016152df565b90600052602060002090600b0201600001600601548211155b612f525760405162461bcd60e51b815260206004820152600960248201526810a23ab930ba34b7b760b91b60448201526064016106a0565b6040805180820190915260168152753e3e205965732c2074686973206f666665723a20257360501b6020820152815151612f8c9190613065565b612fdd336004612fa7600160058a6040516104de91906152c3565b81548110612fb757612fb76152df565b600091825260209091206002600b9092020101546001600160a01b031685858989613cb5565b7fc5e22134575a9af1affc16397b8be736221df5beacc34e2e4cd946319f8b2ea3336000613015600180896040516104de91906152c3565b81548110613025576130256152df565b90600052602060002090600e0201604051613041929190615548565b60405180910390a15050505050565b600061305c8284615671565b90505b92915050565b6130aa828260405160240161307b929190615684565b60408051601f198184030181529190526020810180516001600160e01b0316634b5c427760e01b179052614a4b565b5050565b600061305c82846156b2565b6009816040516130ca91906152c3565b908152602001604051809103902054600014613c695761310160405180606001604052806026815260200161586560269139614a57565b60006040518060a00160405280600861312560016009876040516104de91906152c3565b81548110613135576131356152df565b90600052602060002090600902016040518061012001604052908160008201805461315f90615289565b80601f016020809104026020016040519081016040528092919081815260200182805461318b90615289565b80156131d85780601f106131ad576101008083540402835291602001916131d8565b820191906000526020600020905b8154815290600101906020018083116131bb57829003601f168201915b50505091835250506001828101546001600160a01b03908116602080850191909152600285015482166040808601919091526003860154606086015260048601546080860152600586015460a0860152600686015460c0860152600786015460e086015260089095015460ff16151561010090940193909352938552825180840184528a85168152938916848301529084019290925291909101908152602001600861328f60016009876040516104de91906152c3565b8154811061329f5761329f6152df565b906000526020600020906009020160030154815260200161330160086132d060016009886040516104de91906152c3565b815481106132e0576132e06152df565b906000526020600020906009020160060154426130ae90919063ffffffff16565b9052815460018101835560009283526020909220815180519293600e02909101918290819061333090826153af565b50602082810151600180840180546001600160a01b039384166001600160a01b03199182161790915560408087015160028701805491861691841691909117905560608701516003808801919091556080880151600488015560a0880151600588015560c0880151600688015560e08801516007880155610100909701516008909601805496151560ff1997881617905588850151805160098a01805491871691851691909117905590940151600a880180549190941691161790915590850151600b8501805491949093919091169190849081111561341257613412614cc9565b02179055506060820151600c820155608090910151600d909101556000546040516001906134419084906152c3565b9081526040805160209281900383019020929092556001600160a01b03841660009081526002909152908120815490919061347d906001613050565b8154811061348d5761348d6152df565b6000918252602080832084546001810186559484529220600e9182029092019202018181806134bc83826156c5565b5060018281015482820180546001600160a01b03199081166001600160a01b039384161790915560028086015490850180548316918416919091179055600380860154818601556004808701549086015560058087015490860155600680870154908601556007808701549086015560089586015495909401805460ff968716151560ff199182161790915560098881015490880180548416918516919091179055600a8089015490880180549093169316929092179055600b80870154908601805491909516949391169190849081111561359a5761359a614cc9565b0217905550600c8281015490820155600d918201549101556001600160a01b03821660009081526002602090815260408083205460039092529182902091519091906135e79084906152c3565b9081526040805160209281900383019020929092556001600160a01b038516600090815260029091529081208154909190613623906001613050565b81548110613633576136336152df565b6000918252602080832084546001810186559484529220600e91820290920192020181818061366283826156c5565b5060018281015482820180546001600160a01b03199081166001600160a01b039384161790915560028086015490850180548316918416919091179055600380860154818601556004808701549086015560058087015490860155600680870154908601556007808701549086015560089586015495909401805460ff968716151560ff199182161790915560098881015490880180548416918516919091179055600a8089015490880180549093169316929092179055600b80870154908601805491909516949391169190849081111561374057613740614cc9565b0217905550600c8281015490820155600d918201549101556001600160a01b038316600090815260026020908152604080832054600390925291829020915190919061378d9084906152c3565b90815260405190819003602001902055600880546137ac906001613050565b815481106137bc576137bc6152df565b906000526020600020906009020160086137e160016009856040516104de91906152c3565b815481106137f1576137f16152df565b600091825260209091206009909102018061380c83826156c5565b5060018281015490820180546001600160a01b039283166001600160a01b031991821617909155600280850154908401805491909316911617905560038083015490820155600480830154908201556005808301549082015560068083015490820155600780830154908201556008918201549101805460ff191660ff90921615159190911790556040516009906138a59083906152c3565b908152602001604051809103902054600960086138cd60016009866040516104de91906152c3565b815481106138dd576138dd6152df565b90600052602060002090600902016000016040516138fb91906157a0565b90815260200160405180910390208190555060098160405161391d91906152c3565b908152602001604051809103902060009055600880548061394057613940615816565b600082815260208120600019909201916009830201906139608282614b95565b50600181810180546001600160a01b03199081169091556002830180549091169055600060038301819055600483018190556005830181905560068301819055600783018190556008909201805460ff19169055919092556001600160a01b0385168252600a6020526040909120805490916139dc9190613050565b815481106139ec576139ec6152df565b600091825260208083206001600160a01b0387168452600a82526040808520600b909352938490209351600990930201929091613a31916001916104de9087906152c3565b81548110613a4157613a416152df565b6000918252602090912060099091020180613a5c83826156c5565b5060018281015490820180546001600160a01b039283166001600160a01b031991821617909155600280850154908401805491841691909216179055600380840154908301556004808401549083015560058084015490830155600680840154908301556007808401549083015560089283015492909101805460ff191660ff90931615159290921790915583166000908152600b6020526040908190209051613b079083906152c3565b9081526040805160209281900383019020546001600160a01b0386166000908152600b8452828120600a909452919091208054919291613b48906001613050565b81548110613b5857613b586152df565b9060005260206000209060090201600001604051613b7691906157a0565b9081526040805160209281900383018120939093556001600160a01b0386166000908152600b909252902090613bad9083906152c3565b908152602001604051809103902060009055600a6000846001600160a01b03166001600160a01b03168152602001908152602001600020805480613bf357613bf3615816565b60008281526020812060001990920191600983020190613c138282614b95565b506001810180546001600160a01b031990811690915560028201805490911690556000600382018190556004820181905560058201819055600682018190556007820155600801805460ff191690559055505050565b600581604051613c7991906152c3565b908152602001604051809103902054600014613cb057613cb060405180606001604052806025815260200161584060259139614a57565b505050565b600582604051613cc591906152c3565b9081526020016040518091039020546000146149fc57613cfc60405180606001604052806025815260200161584060259139614a57565b60006004613d1560016005866040516104de91906152c3565b81548110613d2557613d256152df565b90600052602060002090600b020160000160405180610120016040529081600082018054613d5290615289565b80601f0160208091040260200160405190810160405280929190818152602001828054613d7e90615289565b8015613dcb5780601f10613da057610100808354040283529160200191613dcb565b820191906000526020600020905b815481529060010190602001808311613dae57829003601f168201915b505050918352505060018201546001600160a01b0390811660208084019190915260028401548216604080850191909152600385015460608086019190915260048601546080860152600586015460a080870191909152600687015460c0870152600787015460e087015260089096015460ff161515610100909501949094528786529285018a905282519384018352848452825180840184528c83168152918b1682820152830152919250600091810182815260006020820152604001613e9342886130ae565b9052815460018101835560009283526020909220815180519293600e029091019182908190613ec290826153af565b50602082810151600180840180546001600160a01b039384166001600160a01b03199182161790915560408087015160028701805491861691841691909117905560608701516003808801919091556080880151600488015560a0880151600588015560c0880151600688015560e08801516007880155610100909701516008909601805496151560ff1997881617905588850151805160098a01805491871691851691909117905590940151600a880180549190941691161790915590850151600b85018054919490939190911691908490811115613fa457613fa4614cc9565b02179055506060820151600c820155608090910151600d90910155600054604051600190613fd39085906152c3565b9081526040805160209281900383019020929092556001600160a01b03881660009081526002909152908120815490919061400f906001613050565b8154811061401f5761401f6152df565b6000918252602080832084546001810186559484529220600e91820290920192020181818061404e83826156c5565b5060018281015482820180546001600160a01b03199081166001600160a01b039384161790915560028086015490850180548316918416919091179055600380860154818601556004808701549086015560058087015490860155600680870154908601556007808701549086015560089586015495909401805460ff968716151560ff199182161790915560098881015490880180548416918516919091179055600a8089015490880180549093169316929092179055600b80870154908601805491909516949391169190849081111561412c5761412c614cc9565b0217905550600c8281015490820155600d918201549101556001600160a01b03861660009081526002602090815260408083205460039092529182902091519091906141799085906152c3565b9081526040805160209281900383019020929092556001600160a01b0389166000908152600290915290812081549091906141b5906001613050565b815481106141c5576141c56152df565b6000918252602080832084546001810186559484529220600e9182029092019202018181806141f483826156c5565b5060018281015482820180546001600160a01b03199081166001600160a01b039384161790915560028086015490850180548316918416919091179055600380860154818601556004808701549086015560058087015490860155600680870154908601556007808701549086015560089586015495909401805460ff968716151560ff199182161790915560098881015490880180548416918516919091179055600a8089015490880180549093169316929092179055600b8087015490860180549190951694939116919084908111156142d2576142d2614cc9565b0217905550600c8281015490820155600d918201549101556001600160a01b038716600090815260026020908152604080832054600390925291829020915190919061431f9085906152c3565b90815260200160405180910390208190555061437685600461434c60016005886040516104de91906152c3565b8154811061435c5761435c6152df565b600091825260209091206003600b90920201015490613050565b600461438d60016005876040516104de91906152c3565b8154811061439d5761439d6152df565b600091825260208083206003600b9093020191909101929092556001600160a01b038816815260068252604080822060079093529081902090516143f1928892909161434c916001916104de908a906152c3565b6001600160a01b03871660009081526006602090815260408083206007909252918290209151909161442c91600191906104de9089906152c3565b8154811061443c5761443c6152df565b90600052602060002090600b020160000160030181905550600461446b60016005866040516104de91906152c3565b8154811061447b5761447b6152df565b90600052602060002090600b02016009015460046144a460016005876040516104de91906152c3565b815481106144b4576144b46152df565b90600052602060002090600b02016000016003015410156149f657600480546144de906001613050565b815481106144ee576144ee6152df565b90600052602060002090600b0201600461451360016005876040516104de91906152c3565b81548110614523576145236152df565b60009182526020909120600b9091020181818061454083826156c5565b5060018281015490820180546001600160a01b039283166001600160a01b0319918216179091556002808501549084018054919093169116179055600380830154908201556004808301549082015560058083015481830155600680840154908301556007808401549083015560089283015492909101805460ff191660ff90931615159290921790915560098381015490830155600a9283015492909101919091556040516145f19085906152c3565b9081526020016040518091039020546005600461461960016005886040516104de91906152c3565b81548110614629576146296152df565b6000918252602090912060405161464692600b02909101906157a0565b90815260200160405180910390208190555060058360405161466891906152c3565b908152602001604051809103902060009055600480548061468b5761468b615816565b60008281526020812060001990920191600b8302019081816146ad8282614b95565b50600181810180546001600160a01b0319908116909155600283018054909116905560006003830181905560048301819055600583018190556006808401829055600784018290556008909301805460ff1916905560098501819055600a90940184905593909455506001600160a01b038916815260209290925260409091208054909161473b9190613050565b8154811061474b5761474b6152df565b600091825260208083206001600160a01b038a1684526006825260408085206007909352938490209351600b90930201929091614790916001916104de9089906152c3565b815481106147a0576147a06152df565b60009182526020909120600b909102018181806147bd83826156c5565b5060018281015490820180546001600160a01b039283166001600160a01b031991821617909155600280850154908401805491841691909216179055600380840154908301556004808401549083015560058084015490830155600680840154908301556007808401548184015560089384015493909201805460ff191660ff90941615159390931790925560098481015490840155600a938401549390920192909255908716600090815260209190915260409081902090516148829085906152c3565b9081526040805160209281900383019020546001600160a01b03891660009081526007845282812060069094529190912080549192916148c3906001613050565b815481106148d3576148d36152df565b600091825260209091206040516148f092600b02909101906157a0565b9081526040805160209281900383018120939093556001600160a01b038916600090815260079092529020906149279085906152c3565b90815260200160405180910390206000905560066000876001600160a01b03166001600160a01b0316815260200190815260200160002080548061496d5761496d615816565b60008281526020812060001990920191600b83020190818161498f8282614b95565b506001810180546001600160a01b03199081169091556002820180549091169055600060038201819055600482018190556005820181905560068201819055600782018190556008909101805460ff1916905560098301819055600a909201919091555090555b50614a43565b600981604051614a0c91906152c3565b908152602001604051809103902054600014614a4357614a4360405180606001604052806026815260200161586560269139614a57565b505050505050565b614a5481614a9a565b50565b614a5481604051602401614a6b919061582c565b60408051601f198184030181529190526020810180516001600160e01b031663104c13eb60e21b179052614a4b565b60006a636f6e736f6c652e6c6f679050600080835160208501845afa505050565b6040518060600160405280614ace614b35565b815260200160008152602001600081525090565b6040518060a00160405280614af5614b35565b8152602001614b29604051806040016040528060006001600160a01b0316815260200160006001600160a01b031681525090565b81526020016000614ace565b6040518061012001604052806060815260200160006001600160a01b0316815260200160006001600160a01b0316815260200160008152602001600081526020016000815260200160008152602001600081526020016000151581525090565b508054614ba190615289565b6000825580601f10614bb1575050565b601f016020900490600052602060002090810190614a5491905b80821115614bdf5760008155600101614bcb565b5090565b60005b83811015614bfe578181015183820152602001614be6565b50506000910152565b60008151808452614c1f816020860160208601614be3565b601f01601f19169290920160200192915050565b60006101208251818552614c4982860182614c07565b91505060018060a01b0360208401511660208501526040830151614c7860408601826001600160a01b03169052565b50606083015160608501526080830151608085015260a083015160a085015260c083015160c085015260e083015160e085015261010080840151614cbf8287018215159052565b5090949350505050565b634e487b7160e01b600052602160045260246000fd5b60048110614cfd57634e487b7160e01b600052602160045260246000fd5b9052565b6000815160c08452614d1660c0850182614c33565b60208481015180516001600160a01b039081168884015291015116604080870191909152840151909150614d4d6060860182614cdf565b5060608301516080850152608083015160a08501528091505092915050565b6000602080830181845280855180835260408601915060408160051b870101925083870160005b82811015614dc157603f19888603018452614daf858351614d01565b94509285019290850190600101614d93565b5092979650505050505050565b634e487b7160e01b600052604160045260246000fd5b604051610120810167ffffffffffffffff81118282101715614e0857614e08614dce565b60405290565b600082601f830112614e1f57600080fd5b813567ffffffffffffffff80821115614e3a57614e3a614dce565b604051601f8301601f19908116603f01168101908282118183101715614e6257614e62614dce565b81604052838152866020858801011115614e7b57600080fd5b836020870160208301376000602085830101528094505050505092915050565b600060208284031215614ead57600080fd5b813567ffffffffffffffff811115614ec457600080fd5b614ed084828501614e0e565b949350505050565b6000815160608452614eed6060850182614c33565b905060208301516020850152604083015160408501528091505092915050565b60208152600061305c6020830184614ed8565b6001600160a01b0381168114614a5457600080fd5b600060208284031215614f4757600080fd5b8135614f5281614f20565b9392505050565b6000602080830181845280855180835260408601915060408160051b870101925083870160005b82811015614dc157603f19888603018452614f9c858351614ed8565b94509285019290850190600101614f80565b6000602080830181845280855180835260408601915060408160051b870101925083870160005b82811015614dc157603f19888603018452614ff1858351614c33565b94509285019290850190600101614fd5565b803561500e81614f20565b919050565b8015158114614a5457600080fd5b803561500e81615013565b6000610120828403121561503f57600080fd5b615047614de4565b9050813567ffffffffffffffff81111561506057600080fd5b61506c84828501614e0e565b82525061507b60208301615003565b602082015261508c60408301615003565b6040820152606082013560608201526080820135608082015260a082013560a082015260c082013560c082015260e082013560e08201526101006150d1818401615021565b9082015292915050565b6000602082840312156150ed57600080fd5b813567ffffffffffffffff8082111561510557600080fd5b908301906060828603121561511957600080fd5b60405160608101818110838211171561513457615134614dce565b60405282358281111561514657600080fd5b6151528782860161502c565b825250602083013560208201526040830135604082015280935050505092915050565b60208152600061305c6020830184614d01565b60006020828403121561519a57600080fd5b813567ffffffffffffffff8111156151b157600080fd5b614ed08482850161502c565b600080604083850312156151d057600080fd5b823567ffffffffffffffff8111156151e757600080fd5b6151f385828601614e0e565b95602094909401359450505050565b60208152600061305c6020830184614c33565b6000806000806080858703121561522b57600080fd5b843567ffffffffffffffff8082111561524357600080fd5b61524f88838901614e0e565b9550602087013591508082111561526557600080fd5b5061527287828801614e0e565b949794965050505060408301359260600135919050565b600181811c9082168061529d57607f821691505b6020821081036152bd57634e487b7160e01b600052602260045260246000fd5b50919050565b600082516152d5818460208701614be3565b9190910192915050565b634e487b7160e01b600052603260045260246000fd5b60006020828403121561530757600080fd5b8151614f5281615013565b60208082526009908201526810aa3930b739b332b960b91b604082015260600190565b6001600160a01b038416815260606020820181905260009061535990830185614c07565b9050826040830152949350505050565b601f821115613cb057600081815260208120601f850160051c810160208610156153905750805b601f850160051c820191505b81811015614a435782815560010161539c565b815167ffffffffffffffff8111156153c9576153c9614dce565b6153dd816153d78454615289565b84615369565b602080601f83116001811461541257600084156153fa5750858301515b600019600386901b1c1916600185901b178555614a43565b600085815260208120601f198616915b8281101561544157888601518255948401946001909101908401615422565b508582101561545f5787850151600019600388901b60f8161c191681555b5050505050600190811b01905550565b6001600160a01b0383168152604060208201819052600090614ed090830184614ed8565b60208082526005908201526410a9b2b63360d91b604082015260600190565b6000602082840312156154c457600080fd5b5051919050565b600081546154d881615289565b8085526020600183811680156154f5576001811461550f5761553d565b60ff1985168884015283151560051b88018301955061553d565b866000528260002060005b858110156155355781548a820186015290830190840161551a565b890184019650505b505050505092915050565b60018060a01b03831681526040602082015260c0604082015260006101208061010084015261557b6102208401856154cb565b60018501546001600160a01b0390811692850192909252600285015482166101408501526003850154610160850152600485015461018085015260058501546101a085015260068501546101c085015260078501546101e0850152600885015460ff9081161515610200860152600986015483166060860152600a8601549092166080850152600b8501549091169061561760a0850183614cdf565b600c85015460c0850152600d85015460e085015280925050509392505050565b6001600160a01b0383168152604060208201819052600090614ed090830184614c33565b634e487b7160e01b600052601160045260246000fd5b8181038181111561305f5761305f61565b565b6040815260006156976040830185614c07565b82810360208401526156a98185614c07565b95945050505050565b8082018082111561305f5761305f61565b565b8181036156d0575050565b6156da8254615289565b67ffffffffffffffff8111156156f2576156f2614dce565b615700816153d78454615289565b6000601f821160018114615734576000831561571c5750848201545b600019600385901b1c1916600184901b178455615799565b600085815260209020601f19841690600086815260209020845b8381101561576e578286015482556001958601959091019060200161574e565b508583101561578c5781850154600019600388901b60f8161c191681555b50505060018360011b0184555b5050505050565b60008083546157ae81615289565b600182811680156157c657600181146157db5761580a565b60ff198416875282151583028701945061580a565b8760005260208060002060005b858110156158015781548a8201529084019082016157e8565b50505082870194505b50929695505050505050565b634e487b7160e01b600052603160045260246000fd5b60208152600061305c6020830184614c0756fe3e3e20557061646174696e67204c6f616e73204c6973742066726f6d20616e204f666665723e3e20557061646174696e67204c6f616e73204c6973742066726f6d20612052657175657374a264697066735822122083498e5756ecddb9a4d37259e26bd77035d484a428f0a1edcc1269929cb2b2cc64736f6c63430008110033",
  "devdoc": {
    "author": "Dekan Kachi - @kachdekan",
    "kind": "dev",
    "methods": {
      "borrowFromOffer(string,string,uint256,uint256)": {
        "params": {
          "_amount": "Amount to borrow",
          "_duration": "Duration of loan",
          "_loanId": "Loan ID",
          "_offerId": "Offer ID"
        }
      },
      "createLoanOffer(((string,address,address,uint256,uint256,uint256,uint256,uint256,bool),uint256,uint256))": {
        "params": {
          "OLD": "LoanDetails struct"
        }
      },
      "createLoanRequest((string,address,address,uint256,uint256,uint256,uint256,uint256,bool))": {
        "params": {
          "LD": "LoanDetails struct"
        }
      },
      "fundLoanRequest(string)": {
        "params": {
          "_loanId": "Loan ID"
        }
      },
      "fundPendingLoan(string)": {
        "params": {
          "_loanId": "Loan ID"
        }
      },
      "repayLoan(string,uint256)": {
        "params": {
          "_loanId": "Loan ID"
        }
      }
    },
    "title": "Outre Finance P2PLoans Contract",
    "version": 1
  },
  "userdoc": {
    "kind": "user",
    "methods": {
      "borrowFromOffer(string,string,uint256,uint256)": {
        "notice": "Borrow from a loan offer"
      },
      "createLoanOffer(((string,address,address,uint256,uint256,uint256,uint256,uint256,bool),uint256,uint256))": {
        "notice": "Create a loan offer"
      },
      "createLoanRequest((string,address,address,uint256,uint256,uint256,uint256,uint256,bool))": {
        "notice": "Create a loan request"
      },
      "fundLoanRequest(string)": {
        "notice": "Fund a loan request"
      },
      "fundPendingLoan(string)": {
        "notice": "Lender should fund pending Loan"
      },
      "getAvailableRequests()": {
        "notice": "Getter functions"
      },
      "repayLoan(string,uint256)": {
        "notice": "Repay a loan"
      }
    },
    "notice": "Allow users to borrow and lend funds to each other in a P2P fashion.",
    "version": 1
  },
  "storageLayout": {
    "storage": [
      {
        "astId": 8540,
        "contract": "src/P2PLoans.sol:P2PLoans",
        "label": "allP2PLoans",
        "offset": 0,
        "slot": "0",
        "type": "t_array(t_struct(P2PLoanDetails)8535_storage)dyn_storage"
      },
      {
        "astId": 8544,
        "contract": "src/P2PLoans.sol:P2PLoans",
        "label": "p2pLoanIndex",
        "offset": 0,
        "slot": "1",
        "type": "t_mapping(t_string_memory_ptr,t_uint256)"
      },
      {
        "astId": 8550,
        "contract": "src/P2PLoans.sol:P2PLoans",
        "label": "myP2PLoans",
        "offset": 0,
        "slot": "2",
        "type": "t_mapping(t_address,t_array(t_struct(P2PLoanDetails)8535_storage)dyn_storage)"
      },
      {
        "astId": 8556,
        "contract": "src/P2PLoans.sol:P2PLoans",
        "label": "myP2PLoanIdx",
        "offset": 0,
        "slot": "3",
        "type": "t_mapping(t_address,t_mapping(t_string_memory_ptr,t_uint256))"
      },
      {
        "astId": 8560,
        "contract": "src/P2PLoans.sol:P2PLoans",
        "label": "allOffers",
        "offset": 0,
        "slot": "4",
        "type": "t_array(t_struct(OfferLoanDetails)8516_storage)dyn_storage"
      },
      {
        "astId": 8564,
        "contract": "src/P2PLoans.sol:P2PLoans",
        "label": "offerIndex",
        "offset": 0,
        "slot": "5",
        "type": "t_mapping(t_string_memory_ptr,t_uint256)"
      },
      {
        "astId": 8570,
        "contract": "src/P2PLoans.sol:P2PLoans",
        "label": "myOffers",
        "offset": 0,
        "slot": "6",
        "type": "t_mapping(t_address,t_array(t_struct(OfferLoanDetails)8516_storage)dyn_storage)"
      },
      {
        "astId": 8576,
        "contract": "src/P2PLoans.sol:P2PLoans",
        "label": "myOfferIdx",
        "offset": 0,
        "slot": "7",
        "type": "t_mapping(t_address,t_mapping(t_string_memory_ptr,t_uint256))"
      },
      {
        "astId": 8580,
        "contract": "src/P2PLoans.sol:P2PLoans",
        "label": "allRequests",
        "offset": 0,
        "slot": "8",
        "type": "t_array(t_struct(LoanDetails)8508_storage)dyn_storage"
      },
      {
        "astId": 8584,
        "contract": "src/P2PLoans.sol:P2PLoans",
        "label": "requestIndex",
        "offset": 0,
        "slot": "9",
        "type": "t_mapping(t_string_memory_ptr,t_uint256)"
      },
      {
        "astId": 8590,
        "contract": "src/P2PLoans.sol:P2PLoans",
        "label": "myRequests",
        "offset": 0,
        "slot": "10",
        "type": "t_mapping(t_address,t_array(t_struct(LoanDetails)8508_storage)dyn_storage)"
      },
      {
        "astId": 8596,
        "contract": "src/P2PLoans.sol:P2PLoans",
        "label": "myRequestIdx",
        "offset": 0,
        "slot": "11",
        "type": "t_mapping(t_address,t_mapping(t_string_memory_ptr,t_uint256))"
      }
    ],
    "types": {
      "t_address": {
        "encoding": "inplace",
        "label": "address",
        "numberOfBytes": "20"
      },
      "t_address_payable": {
        "encoding": "inplace",
        "label": "address payable",
        "numberOfBytes": "20"
      },
      "t_array(t_struct(LoanDetails)8508_storage)dyn_storage": {
        "base": "t_struct(LoanDetails)8508_storage",
        "encoding": "dynamic_array",
        "label": "struct P2PLoans.LoanDetails[]",
        "numberOfBytes": "32"
      },
      "t_array(t_struct(OfferLoanDetails)8516_storage)dyn_storage": {
        "base": "t_struct(OfferLoanDetails)8516_storage",
        "encoding": "dynamic_array",
        "label": "struct P2PLoans.OfferLoanDetails[]",
        "numberOfBytes": "32"
      },
      "t_array(t_struct(P2PLoanDetails)8535_storage)dyn_storage": {
        "base": "t_struct(P2PLoanDetails)8535_storage",
        "encoding": "dynamic_array",
        "label": "struct P2PLoans.P2PLoanDetails[]",
        "numberOfBytes": "32"
      },
      "t_bool": {
        "encoding": "inplace",
        "label": "bool",
        "numberOfBytes": "1"
      },
      "t_contract(IERC20)77": {
        "encoding": "inplace",
        "label": "contract IERC20",
        "numberOfBytes": "20"
      },
      "t_enum(LoanState)8488": {
        "encoding": "inplace",
        "label": "enum P2PLoans.LoanState",
        "numberOfBytes": "1"
      },
      "t_mapping(t_address,t_array(t_struct(LoanDetails)8508_storage)dyn_storage)": {
        "encoding": "mapping",
        "key": "t_address",
        "label": "mapping(address => struct P2PLoans.LoanDetails[])",
        "numberOfBytes": "32",
        "value": "t_array(t_struct(LoanDetails)8508_storage)dyn_storage"
      },
      "t_mapping(t_address,t_array(t_struct(OfferLoanDetails)8516_storage)dyn_storage)": {
        "encoding": "mapping",
        "key": "t_address",
        "label": "mapping(address => struct P2PLoans.OfferLoanDetails[])",
        "numberOfBytes": "32",
        "value": "t_array(t_struct(OfferLoanDetails)8516_storage)dyn_storage"
      },
      "t_mapping(t_address,t_array(t_struct(P2PLoanDetails)8535_storage)dyn_storage)": {
        "encoding": "mapping",
        "key": "t_address",
        "label": "mapping(address => struct P2PLoans.P2PLoanDetails[])",
        "numberOfBytes": "32",
        "value": "t_array(t_struct(P2PLoanDetails)8535_storage)dyn_storage"
      },
      "t_mapping(t_address,t_mapping(t_string_memory_ptr,t_uint256))": {
        "encoding": "mapping",
        "key": "t_address",
        "label": "mapping(address => mapping(string => uint256))",
        "numberOfBytes": "32",
        "value": "t_mapping(t_string_memory_ptr,t_uint256)"
      },
      "t_mapping(t_string_memory_ptr,t_uint256)": {
        "encoding": "mapping",
        "key": "t_string_memory_ptr",
        "label": "mapping(string => uint256)",
        "numberOfBytes": "32",
        "value": "t_uint256"
      },
      "t_string_memory_ptr": {
        "encoding": "bytes",
        "label": "string",
        "numberOfBytes": "32"
      },
      "t_string_storage": {
        "encoding": "bytes",
        "label": "string",
        "numberOfBytes": "32"
      },
      "t_struct(LoanDetails)8508_storage": {
        "encoding": "inplace",
        "label": "struct P2PLoans.LoanDetails",
        "members": [
          {
            "astId": 8490,
            "contract": "src/P2PLoans.sol:P2PLoans",
            "label": "loanId",
            "offset": 0,
            "slot": "0",
            "type": "t_string_storage"
          },
          {
            "astId": 8493,
            "contract": "src/P2PLoans.sol:P2PLoans",
            "label": "token",
            "offset": 0,
            "slot": "1",
            "type": "t_contract(IERC20)77"
          },
          {
            "astId": 8495,
            "contract": "src/P2PLoans.sol:P2PLoans",
            "label": "initiator",
            "offset": 0,
            "slot": "2",
            "type": "t_address_payable"
          },
          {
            "astId": 8497,
            "contract": "src/P2PLoans.sol:P2PLoans",
            "label": "principal",
            "offset": 0,
            "slot": "3",
            "type": "t_uint256"
          },
          {
            "astId": 8499,
            "contract": "src/P2PLoans.sol:P2PLoans",
            "label": "interest",
            "offset": 0,
            "slot": "4",
            "type": "t_uint256"
          },
          {
            "astId": 8501,
            "contract": "src/P2PLoans.sol:P2PLoans",
            "label": "minDuration",
            "offset": 0,
            "slot": "5",
            "type": "t_uint256"
          },
          {
            "astId": 8503,
            "contract": "src/P2PLoans.sol:P2PLoans",
            "label": "maxDuration",
            "offset": 0,
            "slot": "6",
            "type": "t_uint256"
          },
          {
            "astId": 8505,
            "contract": "src/P2PLoans.sol:P2PLoans",
            "label": "bCreditScore",
            "offset": 0,
            "slot": "7",
            "type": "t_uint256"
          },
          {
            "astId": 8507,
            "contract": "src/P2PLoans.sol:P2PLoans",
            "label": "isPrivate",
            "offset": 0,
            "slot": "8",
            "type": "t_bool"
          }
        ],
        "numberOfBytes": "288"
      },
      "t_struct(LoanParticipants)8521_storage": {
        "encoding": "inplace",
        "label": "struct P2PLoans.LoanParticipants",
        "members": [
          {
            "astId": 8518,
            "contract": "src/P2PLoans.sol:P2PLoans",
            "label": "borrower",
            "offset": 0,
            "slot": "0",
            "type": "t_address_payable"
          },
          {
            "astId": 8520,
            "contract": "src/P2PLoans.sol:P2PLoans",
            "label": "lender",
            "offset": 0,
            "slot": "1",
            "type": "t_address_payable"
          }
        ],
        "numberOfBytes": "64"
      },
      "t_struct(OfferLoanDetails)8516_storage": {
        "encoding": "inplace",
        "label": "struct P2PLoans.OfferLoanDetails",
        "members": [
          {
            "astId": 8511,
            "contract": "src/P2PLoans.sol:P2PLoans",
            "label": "LD",
            "offset": 0,
            "slot": "0",
            "type": "t_struct(LoanDetails)8508_storage"
          },
          {
            "astId": 8513,
            "contract": "src/P2PLoans.sol:P2PLoans",
            "label": "minLoanAmount",
            "offset": 0,
            "slot": "9",
            "type": "t_uint256"
          },
          {
            "astId": 8515,
            "contract": "src/P2PLoans.sol:P2PLoans",
            "label": "maxLoanAmount",
            "offset": 0,
            "slot": "10",
            "type": "t_uint256"
          }
        ],
        "numberOfBytes": "352"
      },
      "t_struct(P2PLoanDetails)8535_storage": {
        "encoding": "inplace",
        "label": "struct P2PLoans.P2PLoanDetails",
        "members": [
          {
            "astId": 8524,
            "contract": "src/P2PLoans.sol:P2PLoans",
            "label": "LD",
            "offset": 0,
            "slot": "0",
            "type": "t_struct(LoanDetails)8508_storage"
          },
          {
            "astId": 8527,
            "contract": "src/P2PLoans.sol:P2PLoans",
            "label": "LP",
            "offset": 0,
            "slot": "9",
            "type": "t_struct(LoanParticipants)8521_storage"
          },
          {
            "astId": 8530,
            "contract": "src/P2PLoans.sol:P2PLoans",
            "label": "LS",
            "offset": 0,
            "slot": "11",
            "type": "t_enum(LoanState)8488"
          },
          {
            "astId": 8532,
            "contract": "src/P2PLoans.sol:P2PLoans",
            "label": "currentBalance",
            "offset": 0,
            "slot": "12",
            "type": "t_uint256"
          },
          {
            "astId": 8534,
            "contract": "src/P2PLoans.sol:P2PLoans",
            "label": "deadline",
            "offset": 0,
            "slot": "13",
            "type": "t_uint256"
          }
        ],
        "numberOfBytes": "448"
      },
      "t_uint256": {
        "encoding": "inplace",
        "label": "uint256",
        "numberOfBytes": "32"
      }
    }
  }
}